{
  "contractName": "IpfsHash",
  "abi": [
    {
      "inputs": [
        {
          "internalType": "string",
          "name": "_hash",
          "type": "string"
        }
      ],
      "name": "setHash",
      "outputs": [],
      "stateMutability": "nonpayable",
      "type": "function"
    },
    {
      "inputs": [],
      "name": "getHash",
      "outputs": [
        {
          "internalType": "string",
          "name": "",
          "type": "string"
        }
      ],
      "stateMutability": "view",
      "type": "function",
      "constant": true
    }
  ],
  "bytecode": "0x608060405234801561001057600080fd5b5061045e806100206000396000f3fe608060405234801561001057600080fd5b50600436106100365760003560e01c80631ed83fd41461003b578063d13319c414610057575b600080fd5b6100556004803603810190610050919061022c565b610075565b005b61005f61008f565b60405161006c91906102a6565b60405180910390f35b806000908051906020019061008b929190610121565b5050565b60606000805461009e90610387565b80601f01602080910402602001604051908101604052809291908181526020018280546100ca90610387565b80156101175780601f106100ec57610100808354040283529160200191610117565b820191906000526020600020905b8154815290600101906020018083116100fa57829003601f168201915b5050505050905090565b82805461012d90610387565b90600052602060002090601f01602090048101928261014f5760008555610196565b82601f1061016857805160ff1916838001178555610196565b82800160010185558215610196579182015b8281111561019557825182559160200191906001019061017a565b5b5090506101a391906101a7565b5090565b5b808211156101c05760008160009055506001016101a8565b5090565b60006101d76101d2846102f9565b6102c8565b9050828152602081018484840111156101ef57600080fd5b6101fa848285610345565b509392505050565b600082601f83011261021357600080fd5b81356102238482602086016101c4565b91505092915050565b60006020828403121561023e57600080fd5b600082013567ffffffffffffffff81111561025857600080fd5b61026484828501610202565b91505092915050565b600061027882610329565b6102828185610334565b9350610292818560208601610354565b61029b81610417565b840191505092915050565b600060208201905081810360008301526102c0818461026d565b905092915050565b6000604051905081810181811067ffffffffffffffff821117156102ef576102ee6103e8565b5b8060405250919050565b600067ffffffffffffffff821115610314576103136103e8565b5b601f19601f8301169050602081019050919050565b600081519050919050565b600082825260208201905092915050565b82818337600083830152505050565b60005b83811015610372578082015181840152602081019050610357565b83811115610381576000848401525b50505050565b6000600282049050600182168061039f57607f821691505b602082108114156103b3576103b26103b9565b5b50919050565b7f4e487b7100000000000000000000000000000000000000000000000000000000600052602260045260246000fd5b7f4e487b7100000000000000000000000000000000000000000000000000000000600052604160045260246000fd5b6000601f19601f830116905091905056fea26469706673582212206cc617c67b2fb136ed0b9d5af2827e9ddeb7f4cb4c0d5e185aa80416f9e9eb4564736f6c63430008000033",
  "immutableReferences": {},
  "source": "// SPDX-License-Identifier: MIT\r\n\r\npragma solidity 0.8.0;\r\n\r\ncontract IpfsHash{\r\n    string ipfsHash;\r\n\r\n    function setHash(string memory _hash) public {\r\n        ipfsHash = _hash;\r\n    }\r\n\r\n    function getHash() public view returns(string memory){\r\n        return ipfsHash;\r\n    }\r\n}",
  "sourcePath": "C:/Users/lenovo/Code/pandora-bazaar/Pandora-Bazaar/src/contracts/ipfsHash.sol",
  "compiler": {
    "name": "solc",
    "version": "0.8.0+commit.c7dfd78e.Emscripten.clang"
  },
  "schemaVersion": "3.2.3",
  "updatedAt": "2021-06-30T11:09:18.238Z",
  "networkType": "ethereum",
  "devdoc": {
    "kind": "dev",
    "methods": {},
    "version": 1
  },
  "userdoc": {
    "kind": "user",
    "methods": {},
    "version": 1
  }
}