{
  "contractName": "myToken",
  "abi": [
    {
      "inputs": [],
      "stateMutability": "nonpayable",
      "type": "constructor"
    },
    {
      "anonymous": false,
      "inputs": [
        {
          "indexed": true,
          "internalType": "address",
          "name": "owner",
          "type": "address"
        },
        {
          "indexed": true,
          "internalType": "address",
          "name": "approved",
          "type": "address"
        },
        {
          "indexed": true,
          "internalType": "uint256",
          "name": "tokenId",
          "type": "uint256"
        }
      ],
      "name": "Approval",
      "type": "event"
    },
    {
      "anonymous": false,
      "inputs": [
        {
          "indexed": true,
          "internalType": "address",
          "name": "owner",
          "type": "address"
        },
        {
          "indexed": true,
          "internalType": "address",
          "name": "operator",
          "type": "address"
        },
        {
          "indexed": false,
          "internalType": "bool",
          "name": "approved",
          "type": "bool"
        }
      ],
      "name": "ApprovalForAll",
      "type": "event"
    },
    {
      "anonymous": false,
      "inputs": [
        {
          "indexed": true,
          "internalType": "address",
          "name": "previousOwner",
          "type": "address"
        },
        {
          "indexed": true,
          "internalType": "address",
          "name": "newOwner",
          "type": "address"
        }
      ],
      "name": "OwnershipTransferred",
      "type": "event"
    },
    {
      "anonymous": false,
      "inputs": [
        {
          "indexed": true,
          "internalType": "address",
          "name": "from",
          "type": "address"
        },
        {
          "indexed": true,
          "internalType": "address",
          "name": "to",
          "type": "address"
        },
        {
          "indexed": true,
          "internalType": "uint256",
          "name": "tokenId",
          "type": "uint256"
        }
      ],
      "name": "Transfer",
      "type": "event"
    },
    {
      "inputs": [
        {
          "internalType": "address",
          "name": "to",
          "type": "address"
        },
        {
          "internalType": "uint256",
          "name": "tokenId",
          "type": "uint256"
        }
      ],
      "name": "approve",
      "outputs": [],
      "stateMutability": "nonpayable",
      "type": "function"
    },
    {
      "inputs": [
        {
          "internalType": "address",
          "name": "owner",
          "type": "address"
        }
      ],
      "name": "balanceOf",
      "outputs": [
        {
          "internalType": "uint256",
          "name": "",
          "type": "uint256"
        }
      ],
      "stateMutability": "view",
      "type": "function",
      "constant": true
    },
    {
      "inputs": [
        {
          "internalType": "uint256",
          "name": "tokenId",
          "type": "uint256"
        }
      ],
      "name": "getApproved",
      "outputs": [
        {
          "internalType": "address",
          "name": "",
          "type": "address"
        }
      ],
      "stateMutability": "view",
      "type": "function",
      "constant": true
    },
    {
      "inputs": [
        {
          "internalType": "address",
          "name": "owner",
          "type": "address"
        },
        {
          "internalType": "address",
          "name": "operator",
          "type": "address"
        }
      ],
      "name": "isApprovedForAll",
      "outputs": [
        {
          "internalType": "bool",
          "name": "",
          "type": "bool"
        }
      ],
      "stateMutability": "view",
      "type": "function",
      "constant": true
    },
    {
      "inputs": [],
      "name": "name",
      "outputs": [
        {
          "internalType": "string",
          "name": "",
          "type": "string"
        }
      ],
      "stateMutability": "view",
      "type": "function",
      "constant": true
    },
    {
      "inputs": [],
      "name": "owner",
      "outputs": [
        {
          "internalType": "address",
          "name": "",
          "type": "address"
        }
      ],
      "stateMutability": "view",
      "type": "function",
      "constant": true
    },
    {
      "inputs": [
        {
          "internalType": "uint256",
          "name": "tokenId",
          "type": "uint256"
        }
      ],
      "name": "ownerOf",
      "outputs": [
        {
          "internalType": "address",
          "name": "",
          "type": "address"
        }
      ],
      "stateMutability": "view",
      "type": "function",
      "constant": true
    },
    {
      "inputs": [],
      "name": "renounceOwnership",
      "outputs": [],
      "stateMutability": "nonpayable",
      "type": "function"
    },
    {
      "inputs": [
        {
          "internalType": "address",
          "name": "from",
          "type": "address"
        },
        {
          "internalType": "address",
          "name": "to",
          "type": "address"
        },
        {
          "internalType": "uint256",
          "name": "tokenId",
          "type": "uint256"
        }
      ],
      "name": "safeTransferFrom",
      "outputs": [],
      "stateMutability": "nonpayable",
      "type": "function"
    },
    {
      "inputs": [
        {
          "internalType": "address",
          "name": "from",
          "type": "address"
        },
        {
          "internalType": "address",
          "name": "to",
          "type": "address"
        },
        {
          "internalType": "uint256",
          "name": "tokenId",
          "type": "uint256"
        },
        {
          "internalType": "bytes",
          "name": "_data",
          "type": "bytes"
        }
      ],
      "name": "safeTransferFrom",
      "outputs": [],
      "stateMutability": "nonpayable",
      "type": "function"
    },
    {
      "inputs": [
        {
          "internalType": "address",
          "name": "operator",
          "type": "address"
        },
        {
          "internalType": "bool",
          "name": "approved",
          "type": "bool"
        }
      ],
      "name": "setApprovalForAll",
      "outputs": [],
      "stateMutability": "nonpayable",
      "type": "function"
    },
    {
      "inputs": [
        {
          "internalType": "bytes4",
          "name": "interfaceId",
          "type": "bytes4"
        }
      ],
      "name": "supportsInterface",
      "outputs": [
        {
          "internalType": "bool",
          "name": "",
          "type": "bool"
        }
      ],
      "stateMutability": "view",
      "type": "function",
      "constant": true
    },
    {
      "inputs": [],
      "name": "symbol",
      "outputs": [
        {
          "internalType": "string",
          "name": "",
          "type": "string"
        }
      ],
      "stateMutability": "view",
      "type": "function",
      "constant": true
    },
    {
      "inputs": [
        {
          "internalType": "uint256",
          "name": "tokenId",
          "type": "uint256"
        }
      ],
      "name": "tokenURI",
      "outputs": [
        {
          "internalType": "string",
          "name": "",
          "type": "string"
        }
      ],
      "stateMutability": "view",
      "type": "function",
      "constant": true
    },
    {
      "inputs": [
        {
          "internalType": "address",
          "name": "from",
          "type": "address"
        },
        {
          "internalType": "address",
          "name": "to",
          "type": "address"
        },
        {
          "internalType": "uint256",
          "name": "tokenId",
          "type": "uint256"
        }
      ],
      "name": "transferFrom",
      "outputs": [],
      "stateMutability": "nonpayable",
      "type": "function"
    },
    {
      "inputs": [
        {
          "internalType": "address",
          "name": "newOwner",
          "type": "address"
        }
      ],
      "name": "transferOwnership",
      "outputs": [],
      "stateMutability": "nonpayable",
      "type": "function"
    },
    {
      "stateMutability": "payable",
      "type": "receive",
      "payable": true
    },
    {
      "inputs": [
        {
          "internalType": "string",
          "name": "_ipfs",
          "type": "string"
        }
      ],
      "name": "createToken",
      "outputs": [],
      "stateMutability": "nonpayable",
      "type": "function"
    },
    {
      "inputs": [
        {
          "internalType": "uint256",
          "name": "_tokenId",
          "type": "uint256"
        }
      ],
      "name": "buyToken",
      "outputs": [],
      "stateMutability": "payable",
      "type": "function",
      "payable": true
    },
    {
      "inputs": [
        {
          "internalType": "uint256",
          "name": "_tokenId",
          "type": "uint256"
        },
        {
          "internalType": "uint256",
          "name": "_price",
          "type": "uint256"
        }
      ],
      "name": "sellToken",
      "outputs": [],
      "stateMutability": "nonpayable",
      "type": "function"
    },
    {
      "inputs": [
        {
          "internalType": "uint256",
          "name": "_tokenId",
          "type": "uint256"
        }
      ],
      "name": "getPrice",
      "outputs": [
        {
          "internalType": "uint256",
          "name": "",
          "type": "uint256"
        }
      ],
      "stateMutability": "view",
      "type": "function",
      "constant": true
    },
    {
      "inputs": [
        {
          "internalType": "uint256",
          "name": "_tokenId",
          "type": "uint256"
        }
      ],
      "name": "isForSale",
      "outputs": [
        {
          "internalType": "bool",
          "name": "",
          "type": "bool"
        }
      ],
      "stateMutability": "view",
      "type": "function",
      "constant": true
    },
    {
      "inputs": [
        {
          "internalType": "uint256",
          "name": "_tokenId",
          "type": "uint256"
        }
      ],
      "name": "getIpfsFromId",
      "outputs": [
        {
          "internalType": "string",
          "name": "",
          "type": "string"
        }
      ],
      "stateMutability": "view",
      "type": "function",
      "constant": true
    },
    {
      "inputs": [
        {
          "internalType": "string",
          "name": "_ipfs",
          "type": "string"
        }
      ],
      "name": "getIdFromIpfs",
      "outputs": [
        {
          "internalType": "uint256",
          "name": "",
          "type": "uint256"
        }
      ],
      "stateMutability": "view",
      "type": "function",
      "constant": true
    },
    {
      "inputs": [
        {
          "internalType": "uint256",
          "name": "_tokenId",
          "type": "uint256"
        }
      ],
      "name": "getAddressFromId",
      "outputs": [
        {
          "internalType": "address",
          "name": "",
          "type": "address"
        }
      ],
      "stateMutability": "view",
      "type": "function",
      "constant": true
    },
    {
      "inputs": [],
      "name": "getBalance",
      "outputs": [
        {
          "internalType": "uint256",
          "name": "",
          "type": "uint256"
        }
      ],
      "stateMutability": "view",
      "type": "function",
      "constant": true
    }
  ],
  "bytecode": "0x60806040523480156200001157600080fd5b506040518060400160405280600481526020017f4974656d000000000000000000000000000000000000000000000000000000008152506040518060400160405280600381526020017f49544d000000000000000000000000000000000000000000000000000000000081525081600090805190602001906200009692919062000179565b508060019080519060200190620000af92919062000179565b5050506000620000c46200017160201b60201c565b905080600660006101000a81548173ffffffffffffffffffffffffffffffffffffffff021916908373ffffffffffffffffffffffffffffffffffffffff1602179055508073ffffffffffffffffffffffffffffffffffffffff16600073ffffffffffffffffffffffffffffffffffffffff167f8be0079c531659141344cd1fd0a4f28419497f9722a3daafe3b4186f6b6457e060405160405180910390a3506000600e819055506200028e565b600033905090565b828054620001879062000229565b90600052602060002090601f016020900481019282620001ab5760008555620001f7565b82601f10620001c657805160ff1916838001178555620001f7565b82800160010185558215620001f7579182015b82811115620001f6578251825591602001919060010190620001d9565b5b5090506200020691906200020a565b5090565b5b80821115620002255760008160009055506001016200020b565b5090565b600060028204905060018216806200024257607f821691505b602082108114156200025957620002586200025f565b5b50919050565b7f4e487b7100000000000000000000000000000000000000000000000000000000600052602260045260246000fd5b613a44806200029e6000396000f3fe60806040526004361061016a5760003560e01c806370a08231116100d1578063a22cb4651161008a578063e757223011610064578063e7572230146105f1578063e985e9c51461062e578063f16fec431461066b578063f2fde38b146106a857610206565b8063a22cb46514610562578063b88d4fde1461058b578063c87b56dd146105b457610206565b806370a082311461043e578063715018a61461047b57806372166b6b146104925780638546d002146104cf5780638da5cb5b1461050c57806395d89b411461053757610206565b806323b872dd1161012357806323b872dd1461032d5780632d296bf11461035657806342842e0e1461037257806345576f941461039b5780636352211e146103c4578063660c1fe71461040157610206565b806301ffc9a71461020b57806306fdde0314610248578063081812fc14610273578063095ea7b3146102b057806312065fe0146102d95780631897bcf31461030457610206565b36610206576101c134600d60003373ffffffffffffffffffffffffffffffffffffffff1673ffffffffffffffffffffffffffffffffffffffff168152602001908152602001600020546106d190919063ffffffff16565b600d60003373ffffffffffffffffffffffffffffffffffffffff1673ffffffffffffffffffffffffffffffffffffffff16815260200190815260200160002081905550005b600080fd5b34801561021757600080fd5b50610232600480360381019061022d91906129c4565b6106e7565b60405161023f919061331c565b60405180910390f35b34801561025457600080fd5b5061025d6107c9565b60405161026a9190613337565b60405180910390f35b34801561027f57600080fd5b5061029a60048036038101906102959190612a57565b61085b565b6040516102a791906132b5565b60405180910390f35b3480156102bc57600080fd5b506102d760048036038101906102d29190612988565b6108e0565b005b3480156102e557600080fd5b506102ee6109f8565b6040516102fb91906135d9565b60405180910390f35b34801561031057600080fd5b5061032b60048036038101906103269190612a80565b610a00565b005b34801561033957600080fd5b50610354600480360381019061034f9190612882565b610b2e565b005b610370600480360381019061036b9190612a57565b610b8e565b005b34801561037e57600080fd5b5061039960048036038101906103949190612882565b610db9565b005b3480156103a757600080fd5b506103c260048036038101906103bd9190612a16565b610dd9565b005b3480156103d057600080fd5b506103eb60048036038101906103e69190612a57565b610f3d565b6040516103f891906132b5565b60405180910390f35b34801561040d57600080fd5b5061042860048036038101906104239190612a16565b610fef565b60405161043591906135d9565b60405180910390f35b34801561044a57600080fd5b506104656004803603810190610460919061281d565b611017565b60405161047291906135d9565b60405180910390f35b34801561048757600080fd5b506104906110cf565b005b34801561049e57600080fd5b506104b960048036038101906104b49190612a57565b61120c565b6040516104c691906132b5565b60405180910390f35b3480156104db57600080fd5b506104f660048036038101906104f19190612a57565b611249565b604051610503919061331c565b60405180910390f35b34801561051857600080fd5b506105216112b8565b60405161052e91906132b5565b60405180910390f35b34801561054357600080fd5b5061054c6112e2565b6040516105599190613337565b60405180910390f35b34801561056e57600080fd5b506105896004803603810190610584919061294c565b611374565b005b34801561059757600080fd5b506105b260048036038101906105ad91906128d1565b6114f5565b005b3480156105c057600080fd5b506105db60048036038101906105d69190612a57565b611557565b6040516105e89190613337565b60405180910390f35b3480156105fd57600080fd5b5061061860048036038101906106139190612a57565b6115fe565b60405161062591906135d9565b60405180910390f35b34801561063a57600080fd5b5061065560048036038101906106509190612846565b61161b565b604051610662919061331c565b60405180910390f35b34801561067757600080fd5b50610692600480360381019061068d9190612a57565b6116af565b60405161069f9190613337565b60405180910390f35b3480156106b457600080fd5b506106cf60048036038101906106ca919061281d565b61179f565b005b600081836106df91906136c8565b905092915050565b60007f80ac58cd000000000000000000000000000000000000000000000000000000007bffffffffffffffffffffffffffffffffffffffffffffffffffffffff1916827bffffffffffffffffffffffffffffffffffffffffffffffffffffffff191614806107b257507f5b5e139f000000000000000000000000000000000000000000000000000000007bffffffffffffffffffffffffffffffffffffffffffffffffffffffff1916827bffffffffffffffffffffffffffffffffffffffffffffffffffffffff1916145b806107c257506107c18261194b565b5b9050919050565b6060600080546107d890613839565b80601f016020809104026020016040519081016040528092919081815260200182805461080490613839565b80156108515780601f1061082657610100808354040283529160200191610851565b820191906000526020600020905b81548152906001019060200180831161083457829003601f168201915b5050505050905090565b6000610866826119b5565b6108a5576040517f08c379a000000000000000000000000000000000000000000000000000000000815260040161089c90613519565b60405180910390fd5b6004600083815260200190815260200160002060009054906101000a900473ffffffffffffffffffffffffffffffffffffffff169050919050565b60006108eb82610f3d565b90508073ffffffffffffffffffffffffffffffffffffffff168373ffffffffffffffffffffffffffffffffffffffff16141561095c576040517f08c379a000000000000000000000000000000000000000000000000000000000815260040161095390613599565b60405180910390fd5b8073ffffffffffffffffffffffffffffffffffffffff1661097b611a21565b73ffffffffffffffffffffffffffffffffffffffff1614806109aa57506109a9816109a4611a21565b61161b565b5b6109e9576040517f08c379a00000000000000000000000000000000000000000000000000000000081526004016109e090613499565b60405180910390fd5b6109f38383611a29565b505050565b600047905090565b600e54821115610a45576040517f08c379a0000000000000000000000000000000000000000000000000000000008152600401610a3c90613459565b60405180910390fd5b6007600083815260200190815260200160002060009054906101000a900473ffffffffffffffffffffffffffffffffffffffff1673ffffffffffffffffffffffffffffffffffffffff163373ffffffffffffffffffffffffffffffffffffffff1614610ae6576040517f08c379a0000000000000000000000000000000000000000000000000000000008152600401610add906133d9565b60405180910390fd5b6001600b600084815260200190815260200160002060006101000a81548160ff02191690831515021790555080600c6000848152602001908152602001600020819055505050565b610b3f610b39611a21565b82611ae2565b610b7e576040517f08c379a0000000000000000000000000000000000000000000000000000000008152600401610b75906135b9565b60405180910390fd5b610b89838383611bc0565b505050565b60011515600b600083815260200190815260200160002060009054906101000a900460ff16151514610bf5576040517f08c379a0000000000000000000000000000000000000000000000000000000008152600401610bec906133b9565b60405180910390fd5b60006007600083815260200190815260200160002060009054906101000a900473ffffffffffffffffffffffffffffffffffffffff16905060003390508073ffffffffffffffffffffffffffffffffffffffff168273ffffffffffffffffffffffffffffffffffffffff161415610c6b57600080fd5b600c600084815260200190815260200160002054600d60008373ffffffffffffffffffffffffffffffffffffffff1673ffffffffffffffffffffffffffffffffffffffff168152602001908152602001600020541015610d00576040517f08c379a0000000000000000000000000000000000000000000000000000000008152600401610cf790613359565b60405180910390fd5b610d0a8184611a29565b8173ffffffffffffffffffffffffffffffffffffffff166108fc600c6000868152602001908152602001600020549081150290604051600060405180830381858888f19350505050158015610d63573d6000803e3d6000fd5b50610d6f828285611e1c565b6000600b600085815260200190815260200160002060006101000a81548160ff0219169083151502179055506000600c600085815260200190815260200160002081905550505050565b610dd4838383604051806020016040528060008152506114f5565b505050565b3360076000600e54815260200190815260200160002060006101000a81548173ffffffffffffffffffffffffffffffffffffffff021916908373ffffffffffffffffffffffffffffffffffffffff160217905550610e806001600860003373ffffffffffffffffffffffffffffffffffffffff1673ffffffffffffffffffffffffffffffffffffffff168152602001908152602001600020546106d190919063ffffffff16565b600860003373ffffffffffffffffffffffffffffffffffffffff1673ffffffffffffffffffffffffffffffffffffffff168152602001908152602001600020819055508060096000600e5481526020019081526020016000209080519060200190610eec929190612641565b50600e54600a82604051610f00919061327a565b908152602001604051809103902081905550610f1e33600e54612015565b610f346001600e546106d190919063ffffffff16565b600e8190555050565b6000806002600084815260200190815260200160002060009054906101000a900473ffffffffffffffffffffffffffffffffffffffff169050600073ffffffffffffffffffffffffffffffffffffffff168173ffffffffffffffffffffffffffffffffffffffff161415610fe6576040517f08c379a0000000000000000000000000000000000000000000000000000000008152600401610fdd906134d9565b60405180910390fd5b80915050919050565b6000600a82604051611001919061327a565b9081526020016040518091039020549050919050565b60008073ffffffffffffffffffffffffffffffffffffffff168273ffffffffffffffffffffffffffffffffffffffff161415611088576040517f08c379a000000000000000000000000000000000000000000000000000000000815260040161107f906134b9565b60405180910390fd5b600360008373ffffffffffffffffffffffffffffffffffffffff1673ffffffffffffffffffffffffffffffffffffffff168152602001908152602001600020549050919050565b6110d7611a21565b73ffffffffffffffffffffffffffffffffffffffff166110f56112b8565b73ffffffffffffffffffffffffffffffffffffffff161461114b576040517f08c379a000000000000000000000000000000000000000000000000000000000815260040161114290613539565b60405180910390fd5b600073ffffffffffffffffffffffffffffffffffffffff16600660009054906101000a900473ffffffffffffffffffffffffffffffffffffffff1673ffffffffffffffffffffffffffffffffffffffff167f8be0079c531659141344cd1fd0a4f28419497f9722a3daafe3b4186f6b6457e060405160405180910390a36000600660006101000a81548173ffffffffffffffffffffffffffffffffffffffff021916908373ffffffffffffffffffffffffffffffffffffffff160217905550565b60006007600083815260200190815260200160002060009054906101000a900473ffffffffffffffffffffffffffffffffffffffff169050919050565b6000600e54821115611290576040517f08c379a000000000000000000000000000000000000000000000000000000000815260040161128790613459565b60405180910390fd5b600b600083815260200190815260200160002060009054906101000a900460ff169050919050565b6000600660009054906101000a900473ffffffffffffffffffffffffffffffffffffffff16905090565b6060600180546112f190613839565b80601f016020809104026020016040519081016040528092919081815260200182805461131d90613839565b801561136a5780601f1061133f5761010080835404028352916020019161136a565b820191906000526020600020905b81548152906001019060200180831161134d57829003601f168201915b5050505050905090565b61137c611a21565b73ffffffffffffffffffffffffffffffffffffffff168273ffffffffffffffffffffffffffffffffffffffff1614156113ea576040517f08c379a00000000000000000000000000000000000000000000000000000000081526004016113e190613439565b60405180910390fd5b80600560006113f7611a21565b73ffffffffffffffffffffffffffffffffffffffff1673ffffffffffffffffffffffffffffffffffffffff16815260200190815260200160002060008473ffffffffffffffffffffffffffffffffffffffff1673ffffffffffffffffffffffffffffffffffffffff16815260200190815260200160002060006101000a81548160ff0219169083151502179055508173ffffffffffffffffffffffffffffffffffffffff166114a4611a21565b73ffffffffffffffffffffffffffffffffffffffff167f17307eab39ab6107e8899845ad3d59bd9653f200f220920489ca2b5937696c31836040516114e9919061331c565b60405180910390a35050565b611506611500611a21565b83611ae2565b611545576040517f08c379a000000000000000000000000000000000000000000000000000000000815260040161153c906135b9565b60405180910390fd5b61155184848484612033565b50505050565b6060611562826119b5565b6115a1576040517f08c379a000000000000000000000000000000000000000000000000000000000815260040161159890613579565b60405180910390fd5b60006115ab61208f565b905060008151116115cb57604051806020016040528060008152506115f6565b806115d5846120a6565b6040516020016115e6929190613291565b6040516020818303038152906040525b915050919050565b6000600c6000838152602001908152602001600020549050919050565b6000600560008473ffffffffffffffffffffffffffffffffffffffff1673ffffffffffffffffffffffffffffffffffffffff16815260200190815260200160002060008373ffffffffffffffffffffffffffffffffffffffff1673ffffffffffffffffffffffffffffffffffffffff16815260200190815260200160002060009054906101000a900460ff16905092915050565b6060600e548211156116f6576040517f08c379a00000000000000000000000000000000000000000000000000000000081526004016116ed90613459565b60405180910390fd5b600060096000848152602001908152602001600020805461171690613839565b80601f016020809104026020016040519081016040528092919081815260200182805461174290613839565b801561178f5780601f106117645761010080835404028352916020019161178f565b820191906000526020600020905b81548152906001019060200180831161177257829003601f168201915b5050505050905080915050919050565b6117a7611a21565b73ffffffffffffffffffffffffffffffffffffffff166117c56112b8565b73ffffffffffffffffffffffffffffffffffffffff161461181b576040517f08c379a000000000000000000000000000000000000000000000000000000000815260040161181290613539565b60405180910390fd5b600073ffffffffffffffffffffffffffffffffffffffff168173ffffffffffffffffffffffffffffffffffffffff16141561188b576040517f08c379a000000000000000000000000000000000000000000000000000000000815260040161188290613399565b60405180910390fd5b8073ffffffffffffffffffffffffffffffffffffffff16600660009054906101000a900473ffffffffffffffffffffffffffffffffffffffff1673ffffffffffffffffffffffffffffffffffffffff167f8be0079c531659141344cd1fd0a4f28419497f9722a3daafe3b4186f6b6457e060405160405180910390a380600660006101000a81548173ffffffffffffffffffffffffffffffffffffffff021916908373ffffffffffffffffffffffffffffffffffffffff16021790555050565b60007f01ffc9a7000000000000000000000000000000000000000000000000000000007bffffffffffffffffffffffffffffffffffffffffffffffffffffffff1916827bffffffffffffffffffffffffffffffffffffffffffffffffffffffff1916149050919050565b60008073ffffffffffffffffffffffffffffffffffffffff166002600084815260200190815260200160002060009054906101000a900473ffffffffffffffffffffffffffffffffffffffff1673ffffffffffffffffffffffffffffffffffffffff1614159050919050565b600033905090565b816004600083815260200190815260200160002060006101000a81548173ffffffffffffffffffffffffffffffffffffffff021916908373ffffffffffffffffffffffffffffffffffffffff160217905550808273ffffffffffffffffffffffffffffffffffffffff16611a9c83610f3d565b73ffffffffffffffffffffffffffffffffffffffff167f8c5be1e5ebec7d5bd14f71427d1e84f3dd0314c0f7b2291e5b200ac8c7c3b92560405160405180910390a45050565b6000611aed826119b5565b611b2c576040517f08c379a0000000000000000000000000000000000000000000000000000000008152600401611b2390613479565b60405180910390fd5b6000611b3783610f3d565b90508073ffffffffffffffffffffffffffffffffffffffff168473ffffffffffffffffffffffffffffffffffffffff161480611ba657508373ffffffffffffffffffffffffffffffffffffffff16611b8e8461085b565b73ffffffffffffffffffffffffffffffffffffffff16145b80611bb75750611bb6818561161b565b5b91505092915050565b8273ffffffffffffffffffffffffffffffffffffffff16611be082610f3d565b73ffffffffffffffffffffffffffffffffffffffff1614611c36576040517f08c379a0000000000000000000000000000000000000000000000000000000008152600401611c2d90613559565b60405180910390fd5b600073ffffffffffffffffffffffffffffffffffffffff168273ffffffffffffffffffffffffffffffffffffffff161415611ca6576040517f08c379a0000000000000000000000000000000000000000000000000000000008152600401611c9d90613419565b60405180910390fd5b611cb1838383612253565b611cbc600082611a29565b6001600360008573ffffffffffffffffffffffffffffffffffffffff1673ffffffffffffffffffffffffffffffffffffffff1681526020019081526020016000206000828254611d0c919061374f565b925050819055506001600360008473ffffffffffffffffffffffffffffffffffffffff1673ffffffffffffffffffffffffffffffffffffffff1681526020019081526020016000206000828254611d6391906136c8565b92505081905550816002600083815260200190815260200160002060006101000a81548173ffffffffffffffffffffffffffffffffffffffff021916908373ffffffffffffffffffffffffffffffffffffffff160217905550808273ffffffffffffffffffffffffffffffffffffffff168473ffffffffffffffffffffffffffffffffffffffff167fddf252ad1be2c89b69c2b068fc378daa952ba7f163c4a11628f55a4df523b3ef60405160405180910390a4505050565b8273ffffffffffffffffffffffffffffffffffffffff166007600083815260200190815260200160002060009054906101000a900473ffffffffffffffffffffffffffffffffffffffff1673ffffffffffffffffffffffffffffffffffffffff1614611e8757600080fd5b611e92838383610db9565b816007600083815260200190815260200160002060006101000a81548173ffffffffffffffffffffffffffffffffffffffff021916908373ffffffffffffffffffffffffffffffffffffffff160217905550611f376001600860008673ffffffffffffffffffffffffffffffffffffffff1673ffffffffffffffffffffffffffffffffffffffff1681526020019081526020016000205461225890919063ffffffff16565b600860008573ffffffffffffffffffffffffffffffffffffffff1673ffffffffffffffffffffffffffffffffffffffff16815260200190815260200160002081905550611fcd6001600860008573ffffffffffffffffffffffffffffffffffffffff1673ffffffffffffffffffffffffffffffffffffffff168152602001908152602001600020546106d190919063ffffffff16565b600860008473ffffffffffffffffffffffffffffffffffffffff1673ffffffffffffffffffffffffffffffffffffffff16815260200190815260200160002081905550505050565b61202f82826040518060200160405280600081525061226e565b5050565b61203e848484611bc0565b61204a848484846122c9565b612089576040517f08c379a000000000000000000000000000000000000000000000000000000000815260040161208090613379565b60405180910390fd5b50505050565b606060405180602001604052806000815250905090565b606060008214156120ee576040518060400160405280600181526020017f3000000000000000000000000000000000000000000000000000000000000000815250905061224e565b600082905060005b600082146121205780806121099061386b565b915050600a82612119919061371e565b91506120f6565b60008167ffffffffffffffff811115612162577f4e487b7100000000000000000000000000000000000000000000000000000000600052604160045260246000fd5b6040519080825280601f01601f1916602001820160405280156121945781602001600182028036833780820191505090505b5090505b60008514612247576001826121ad919061374f565b9150600a856121bc91906138b4565b60306121c891906136c8565b60f81b818381518110612204577f4e487b7100000000000000000000000000000000000000000000000000000000600052603260045260246000fd5b60200101907effffffffffffffffffffffffffffffffffffffffffffffffffffffffffffff1916908160001a905350600a85612240919061371e565b9450612198565b8093505050505b919050565b505050565b60008183612266919061374f565b905092915050565b6122788383612460565b61228560008484846122c9565b6122c4576040517f08c379a00000000000000000000000000000000000000000000000000000000081526004016122bb90613379565b60405180910390fd5b505050565b60006122ea8473ffffffffffffffffffffffffffffffffffffffff1661262e565b15612453578373ffffffffffffffffffffffffffffffffffffffff1663150b7a02612313611a21565b8786866040518563ffffffff1660e01b815260040161233594939291906132d0565b602060405180830381600087803b15801561234f57600080fd5b505af192505050801561238057506040513d601f19601f8201168201806040525081019061237d91906129ed565b60015b612403573d80600081146123b0576040519150601f19603f3d011682016040523d82523d6000602084013e6123b5565b606091505b506000815114156123fb576040517f08c379a00000000000000000000000000000000000000000000000000000000081526004016123f290613379565b60405180910390fd5b805181602001fd5b63150b7a0260e01b7bffffffffffffffffffffffffffffffffffffffffffffffffffffffff1916817bffffffffffffffffffffffffffffffffffffffffffffffffffffffff191614915050612458565b600190505b949350505050565b600073ffffffffffffffffffffffffffffffffffffffff168273ffffffffffffffffffffffffffffffffffffffff1614156124d0576040517f08c379a00000000000000000000000000000000000000000000000000000000081526004016124c7906134f9565b60405180910390fd5b6124d9816119b5565b15612519576040517f08c379a0000000000000000000000000000000000000000000000000000000008152600401612510906133f9565b60405180910390fd5b61252560008383612253565b6001600360008473ffffffffffffffffffffffffffffffffffffffff1673ffffffffffffffffffffffffffffffffffffffff168152602001908152602001600020600082825461257591906136c8565b92505081905550816002600083815260200190815260200160002060006101000a81548173ffffffffffffffffffffffffffffffffffffffff021916908373ffffffffffffffffffffffffffffffffffffffff160217905550808273ffffffffffffffffffffffffffffffffffffffff16600073ffffffffffffffffffffffffffffffffffffffff167fddf252ad1be2c89b69c2b068fc378daa952ba7f163c4a11628f55a4df523b3ef60405160405180910390a45050565b600080823b905060008111915050919050565b82805461264d90613839565b90600052602060002090601f01602090048101928261266f57600085556126b6565b82601f1061268857805160ff19168380011785556126b6565b828001600101855582156126b6579182015b828111156126b557825182559160200191906001019061269a565b5b5090506126c391906126c7565b5090565b5b808211156126e05760008160009055506001016126c8565b5090565b60006126f76126f284613625565b6135f4565b90508281526020810184848401111561270f57600080fd5b61271a8482856137f7565b509392505050565b600061273561273084613655565b6135f4565b90508281526020810184848401111561274d57600080fd5b6127588482856137f7565b509392505050565b60008135905061276f816139b2565b92915050565b600081359050612784816139c9565b92915050565b600081359050612799816139e0565b92915050565b6000815190506127ae816139e0565b92915050565b600082601f8301126127c557600080fd5b81356127d58482602086016126e4565b91505092915050565b600082601f8301126127ef57600080fd5b81356127ff848260208601612722565b91505092915050565b600081359050612817816139f7565b92915050565b60006020828403121561282f57600080fd5b600061283d84828501612760565b91505092915050565b6000806040838503121561285957600080fd5b600061286785828601612760565b925050602061287885828601612760565b9150509250929050565b60008060006060848603121561289757600080fd5b60006128a586828701612760565b93505060206128b686828701612760565b92505060406128c786828701612808565b9150509250925092565b600080600080608085870312156128e757600080fd5b60006128f587828801612760565b945050602061290687828801612760565b935050604061291787828801612808565b925050606085013567ffffffffffffffff81111561293457600080fd5b612940878288016127b4565b91505092959194509250565b6000806040838503121561295f57600080fd5b600061296d85828601612760565b925050602061297e85828601612775565b9150509250929050565b6000806040838503121561299b57600080fd5b60006129a985828601612760565b92505060206129ba85828601612808565b9150509250929050565b6000602082840312156129d657600080fd5b60006129e48482850161278a565b91505092915050565b6000602082840312156129ff57600080fd5b6000612a0d8482850161279f565b91505092915050565b600060208284031215612a2857600080fd5b600082013567ffffffffffffffff811115612a4257600080fd5b612a4e848285016127de565b91505092915050565b600060208284031215612a6957600080fd5b6000612a7784828501612808565b91505092915050565b60008060408385031215612a9357600080fd5b6000612aa185828601612808565b9250506020612ab285828601612808565b9150509250929050565b612ac581613783565b82525050565b612ad481613795565b82525050565b6000612ae582613685565b612aef818561369b565b9350612aff818560208601613806565b612b08816139a1565b840191505092915050565b6000612b1e82613690565b612b2881856136ac565b9350612b38818560208601613806565b612b41816139a1565b840191505092915050565b6000612b5782613690565b612b6181856136bd565b9350612b71818560208601613806565b80840191505092915050565b6000612b8a601a836136ac565b91507f46756c6c20616d6f756e742068617320746f20626520706169640000000000006000830152602082019050919050565b6000612bca6032836136ac565b91507f4552433732313a207472616e7366657220746f206e6f6e20455243373231526560008301527f63656976657220696d706c656d656e74657200000000000000000000000000006020830152604082019050919050565b6000612c306026836136ac565b91507f4f776e61626c653a206e6577206f776e657220697320746865207a65726f206160008301527f64647265737300000000000000000000000000000000000000000000000000006020830152604082019050919050565b6000612c96601a836136ac565b91507f5468697320546f6b656e206973206e6f7420666f722073616c650000000000006000830152602082019050919050565b6000612cd66024836136ac565b91507f74686973206164647265737320646f6573206e6f74206f776e2074686973207460008301527f6f6b656e000000000000000000000000000000000000000000000000000000006020830152604082019050919050565b6000612d3c601c836136ac565b91507f4552433732313a20746f6b656e20616c7265616479206d696e746564000000006000830152602082019050919050565b6000612d7c6024836136ac565b91507f4552433732313a207472616e7366657220746f20746865207a65726f2061646460008301527f72657373000000000000000000000000000000000000000000000000000000006020830152604082019050919050565b6000612de26019836136ac565b91507f4552433732313a20617070726f766520746f2063616c6c6572000000000000006000830152602082019050919050565b6000612e226020836136ac565b91507f746f6b656e2077697468207468697320496420646f65736e27742065786973746000830152602082019050919050565b6000612e62602c836136ac565b91507f4552433732313a206f70657261746f7220717565727920666f72206e6f6e657860008301527f697374656e7420746f6b656e00000000000000000000000000000000000000006020830152604082019050919050565b6000612ec86038836136ac565b91507f4552433732313a20617070726f76652063616c6c6572206973206e6f74206f7760008301527f6e6572206e6f7220617070726f76656420666f7220616c6c00000000000000006020830152604082019050919050565b6000612f2e602a836136ac565b91507f4552433732313a2062616c616e636520717565727920666f7220746865207a6560008301527f726f2061646472657373000000000000000000000000000000000000000000006020830152604082019050919050565b6000612f946029836136ac565b91507f4552433732313a206f776e657220717565727920666f72206e6f6e657869737460008301527f656e7420746f6b656e00000000000000000000000000000000000000000000006020830152604082019050919050565b6000612ffa6020836136ac565b91507f4552433732313a206d696e7420746f20746865207a65726f20616464726573736000830152602082019050919050565b600061303a602c836136ac565b91507f4552433732313a20617070726f76656420717565727920666f72206e6f6e657860008301527f697374656e7420746f6b656e00000000000000000000000000000000000000006020830152604082019050919050565b60006130a06020836136ac565b91507f4f776e61626c653a2063616c6c6572206973206e6f7420746865206f776e65726000830152602082019050919050565b60006130e06029836136ac565b91507f4552433732313a207472616e73666572206f6620746f6b656e2074686174206960008301527f73206e6f74206f776e00000000000000000000000000000000000000000000006020830152604082019050919050565b6000613146602f836136ac565b91507f4552433732314d657461646174613a2055524920717565727920666f72206e6f60008301527f6e6578697374656e7420746f6b656e00000000000000000000000000000000006020830152604082019050919050565b60006131ac6021836136ac565b91507f4552433732313a20617070726f76616c20746f2063757272656e74206f776e6560008301527f72000000000000000000000000000000000000000000000000000000000000006020830152604082019050919050565b60006132126031836136ac565b91507f4552433732313a207472616e736665722063616c6c6572206973206e6f74206f60008301527f776e6572206e6f7220617070726f7665640000000000000000000000000000006020830152604082019050919050565b613274816137ed565b82525050565b60006132868284612b4c565b915081905092915050565b600061329d8285612b4c565b91506132a98284612b4c565b91508190509392505050565b60006020820190506132ca6000830184612abc565b92915050565b60006080820190506132e56000830187612abc565b6132f26020830186612abc565b6132ff604083018561326b565b81810360608301526133118184612ada565b905095945050505050565b60006020820190506133316000830184612acb565b92915050565b600060208201905081810360008301526133518184612b13565b905092915050565b6000602082019050818103600083015261337281612b7d565b9050919050565b6000602082019050818103600083015261339281612bbd565b9050919050565b600060208201905081810360008301526133b281612c23565b9050919050565b600060208201905081810360008301526133d281612c89565b9050919050565b600060208201905081810360008301526133f281612cc9565b9050919050565b6000602082019050818103600083015261341281612d2f565b9050919050565b6000602082019050818103600083015261343281612d6f565b9050919050565b6000602082019050818103600083015261345281612dd5565b9050919050565b6000602082019050818103600083015261347281612e15565b9050919050565b6000602082019050818103600083015261349281612e55565b9050919050565b600060208201905081810360008301526134b281612ebb565b9050919050565b600060208201905081810360008301526134d281612f21565b9050919050565b600060208201905081810360008301526134f281612f87565b9050919050565b6000602082019050818103600083015261351281612fed565b9050919050565b600060208201905081810360008301526135328161302d565b9050919050565b6000602082019050818103600083015261355281613093565b9050919050565b60006020820190508181036000830152613572816130d3565b9050919050565b6000602082019050818103600083015261359281613139565b9050919050565b600060208201905081810360008301526135b28161319f565b9050919050565b600060208201905081810360008301526135d281613205565b9050919050565b60006020820190506135ee600083018461326b565b92915050565b6000604051905081810181811067ffffffffffffffff8211171561361b5761361a613972565b5b8060405250919050565b600067ffffffffffffffff8211156136405761363f613972565b5b601f19601f8301169050602081019050919050565b600067ffffffffffffffff8211156136705761366f613972565b5b601f19601f8301169050602081019050919050565b600081519050919050565b600081519050919050565b600082825260208201905092915050565b600082825260208201905092915050565b600081905092915050565b60006136d3826137ed565b91506136de836137ed565b9250827fffffffffffffffffffffffffffffffffffffffffffffffffffffffffffffffff03821115613713576137126138e5565b5b828201905092915050565b6000613729826137ed565b9150613734836137ed565b92508261374457613743613914565b5b828204905092915050565b600061375a826137ed565b9150613765836137ed565b925082821015613778576137776138e5565b5b828203905092915050565b600061378e826137cd565b9050919050565b60008115159050919050565b60007fffffffff0000000000000000000000000000000000000000000000000000000082169050919050565b600073ffffffffffffffffffffffffffffffffffffffff82169050919050565b6000819050919050565b82818337600083830152505050565b60005b83811015613824578082015181840152602081019050613809565b83811115613833576000848401525b50505050565b6000600282049050600182168061385157607f821691505b6020821081141561386557613864613943565b5b50919050565b6000613876826137ed565b91507fffffffffffffffffffffffffffffffffffffffffffffffffffffffffffffffff8214156138a9576138a86138e5565b5b600182019050919050565b60006138bf826137ed565b91506138ca836137ed565b9250826138da576138d9613914565b5b828206905092915050565b7f4e487b7100000000000000000000000000000000000000000000000000000000600052601160045260246000fd5b7f4e487b7100000000000000000000000000000000000000000000000000000000600052601260045260246000fd5b7f4e487b7100000000000000000000000000000000000000000000000000000000600052602260045260246000fd5b7f4e487b7100000000000000000000000000000000000000000000000000000000600052604160045260246000fd5b6000601f19601f8301169050919050565b6139bb81613783565b81146139c657600080fd5b50565b6139d281613795565b81146139dd57600080fd5b50565b6139e9816137a1565b81146139f457600080fd5b50565b613a00816137ed565b8114613a0b57600080fd5b5056fea264697066735822122045e1eae571319020915f2633b214e4f52229f40633f115953fdfd10f2ab290ac64736f6c63430008000033",
  "immutableReferences": {},
  "source": "// SPDX-License-Identifier: MIT\r\n\r\npragma solidity 0.8.0;\r\n\r\nimport \"../../node_modules/@openzeppelin/contracts/token/ERC721/ERC721.sol\";\r\nimport \"../../node_modules/@openzeppelin/contracts/utils/math/safeMath.sol\";\r\nimport \"../../node_modules/@openzeppelin/contracts/access/Ownable.sol\";\r\n\r\ncontract myToken is ERC721, Ownable {\r\n\r\n    using SafeMath for uint;\r\n\r\n    mapping(uint => address) tokenToAddress;\r\n    mapping(address => uint) addressToTokens;\r\n    mapping(uint => string) tokenToIpfs;\r\n    mapping(string => uint) ipfsToToken;\r\n    mapping(uint => bool) forSale;\r\n    mapping(uint => uint) priceOfToken;\r\n    mapping(address => uint) addressWallet;\r\n    uint tokenId;\r\n\r\n    constructor() ERC721(\"Item\", \"ITM\") {\r\n        tokenId = 0;\r\n    }\r\n\r\n    receive() external payable {\r\n        addressWallet[msg.sender] = addressWallet[msg.sender].add(msg.value);\r\n    }\r\n\r\n    function createToken(string memory _ipfs) public {\r\n\r\n        tokenToAddress[tokenId] = msg.sender;\r\n        addressToTokens[msg.sender] = addressToTokens[msg.sender].add(1);\r\n        tokenToIpfs[tokenId] = _ipfs;\r\n        ipfsToToken[_ipfs] = tokenId;\r\n        _safeMint(msg.sender, tokenId);\r\n        tokenId = tokenId.add(1);\r\n\r\n    }\r\n\r\n    function sendToken(address _from, address payable _to, uint _tokenId) internal {\r\n        require(tokenToAddress[_tokenId] == _from);\r\n        safeTransferFrom(_from, _to, _tokenId);\r\n        tokenToAddress[_tokenId] = _to;\r\n        addressToTokens[_from] = addressToTokens[_from].sub(1);\r\n        addressToTokens[_to] = addressToTokens[_to].add(1);\r\n    }\r\n\r\n    function buyToken(uint _tokenId) payable public {\r\n        require(forSale[_tokenId] == true, \"This Token is not for sale\");\r\n        address payable _owner = payable(tokenToAddress[_tokenId]);\r\n        address payable _to = payable(msg.sender);\r\n        require(_owner != _to);\r\n        require(addressWallet[_to] >= priceOfToken[_tokenId], \"Full amount has to be paid\");\r\n        _approve(_to, _tokenId);\r\n        _owner.transfer(priceOfToken[_tokenId]);\r\n        sendToken(_owner, _to, _tokenId);\r\n        forSale[_tokenId] = false;\r\n        priceOfToken[_tokenId] = 0;\r\n    }\r\n\r\n    function sellToken(uint _tokenId, uint _price) public {\r\n        require(_tokenId <= tokenId, \"token with this Id doesn't exist\");\r\n        require(msg.sender == tokenToAddress[_tokenId], \"this address does not own this token\");\r\n        forSale[_tokenId] = true;\r\n        priceOfToken[_tokenId] = _price;\r\n\r\n    }\r\n\r\n    function getPrice(uint _tokenId) public view returns(uint) {\r\n        return priceOfToken[_tokenId];\r\n    }\r\n\r\n    function isForSale(uint _tokenId) public view returns(bool) {\r\n        require(_tokenId <= tokenId, \"token with this Id doesn't exist\");\r\n        return forSale[_tokenId];\r\n    }\r\n\r\n    function getIpfsFromId(uint _tokenId) public view returns(string memory) {\r\n        require(_tokenId <= tokenId, \"token with this Id doesn't exist\");\r\n        string memory res = tokenToIpfs[_tokenId];\r\n        return res;\r\n    }\r\n    \r\n    function getIdFromIpfs(string memory _ipfs) public view returns(uint) {\r\n        return ipfsToToken[_ipfs];\r\n    }\r\n\r\n    function getAddressFromId(uint _tokenId) public view returns(address) {\r\n        return tokenToAddress[_tokenId];\r\n    }\r\n\r\n    function getBalance() public view returns(uint) {\r\n        return address(this).balance;\r\n    }\r\n}",
  "sourcePath": "C:/Users/lenovo/Code/pandora-bazaar/Pandora-Bazaar/src/contracts/myToken.sol",
  "compiler": {
    "name": "solc",
    "version": "0.8.0+commit.c7dfd78e.Emscripten.clang"
  },
  "schemaVersion": "3.2.3",
  "updatedAt": "2021-06-30T11:09:18.246Z",
  "networkType": "ethereum",
  "devdoc": {
    "kind": "dev",
    "methods": {
      "approve(address,uint256)": {
        "details": "See {IERC721-approve}."
      },
      "balanceOf(address)": {
        "details": "See {IERC721-balanceOf}."
      },
      "getApproved(uint256)": {
        "details": "See {IERC721-getApproved}."
      },
      "isApprovedForAll(address,address)": {
        "details": "See {IERC721-isApprovedForAll}."
      },
      "name()": {
        "details": "See {IERC721Metadata-name}."
      },
      "owner()": {
        "details": "Returns the address of the current owner."
      },
      "ownerOf(uint256)": {
        "details": "See {IERC721-ownerOf}."
      },
      "renounceOwnership()": {
        "details": "Leaves the contract without owner. It will not be possible to call `onlyOwner` functions anymore. Can only be called by the current owner. NOTE: Renouncing ownership will leave the contract without an owner, thereby removing any functionality that is only available to the owner."
      },
      "safeTransferFrom(address,address,uint256)": {
        "details": "See {IERC721-safeTransferFrom}."
      },
      "safeTransferFrom(address,address,uint256,bytes)": {
        "details": "See {IERC721-safeTransferFrom}."
      },
      "setApprovalForAll(address,bool)": {
        "details": "See {IERC721-setApprovalForAll}."
      },
      "supportsInterface(bytes4)": {
        "details": "See {IERC165-supportsInterface}."
      },
      "symbol()": {
        "details": "See {IERC721Metadata-symbol}."
      },
      "tokenURI(uint256)": {
        "details": "See {IERC721Metadata-tokenURI}."
      },
      "transferFrom(address,address,uint256)": {
        "details": "See {IERC721-transferFrom}."
      },
      "transferOwnership(address)": {
        "details": "Transfers ownership of the contract to a new account (`newOwner`). Can only be called by the current owner."
      }
    },
    "version": 1
  },
  "userdoc": {
    "kind": "user",
    "methods": {},
    "version": 1
  }
}