{
  "contractName": "myToken",
  "abi": [
    {
      "inputs": [],
      "stateMutability": "nonpayable",
      "type": "constructor"
    },
    {
      "anonymous": false,
      "inputs": [
        {
          "indexed": true,
          "internalType": "address",
          "name": "owner",
          "type": "address"
        },
        {
          "indexed": true,
          "internalType": "address",
          "name": "approved",
          "type": "address"
        },
        {
          "indexed": true,
          "internalType": "uint256",
          "name": "tokenId",
          "type": "uint256"
        }
      ],
      "name": "Approval",
      "type": "event"
    },
    {
      "anonymous": false,
      "inputs": [
        {
          "indexed": true,
          "internalType": "address",
          "name": "owner",
          "type": "address"
        },
        {
          "indexed": true,
          "internalType": "address",
          "name": "operator",
          "type": "address"
        },
        {
          "indexed": false,
          "internalType": "bool",
          "name": "approved",
          "type": "bool"
        }
      ],
      "name": "ApprovalForAll",
      "type": "event"
    },
    {
      "anonymous": false,
      "inputs": [
        {
          "indexed": true,
          "internalType": "address",
          "name": "previousOwner",
          "type": "address"
        },
        {
          "indexed": true,
          "internalType": "address",
          "name": "newOwner",
          "type": "address"
        }
      ],
      "name": "OwnershipTransferred",
      "type": "event"
    },
    {
      "anonymous": false,
      "inputs": [
        {
          "indexed": true,
          "internalType": "address",
          "name": "from",
          "type": "address"
        },
        {
          "indexed": true,
          "internalType": "address",
          "name": "to",
          "type": "address"
        },
        {
          "indexed": true,
          "internalType": "uint256",
          "name": "tokenId",
          "type": "uint256"
        }
      ],
      "name": "Transfer",
      "type": "event"
    },
    {
      "inputs": [
        {
          "internalType": "address",
          "name": "to",
          "type": "address"
        },
        {
          "internalType": "uint256",
          "name": "tokenId",
          "type": "uint256"
        }
      ],
      "name": "approve",
      "outputs": [],
      "stateMutability": "nonpayable",
      "type": "function"
    },
    {
      "inputs": [
        {
          "internalType": "address",
          "name": "owner",
          "type": "address"
        }
      ],
      "name": "balanceOf",
      "outputs": [
        {
          "internalType": "uint256",
          "name": "",
          "type": "uint256"
        }
      ],
      "stateMutability": "view",
      "type": "function",
      "constant": true
    },
    {
      "inputs": [
        {
          "internalType": "uint256",
          "name": "tokenId",
          "type": "uint256"
        }
      ],
      "name": "getApproved",
      "outputs": [
        {
          "internalType": "address",
          "name": "",
          "type": "address"
        }
      ],
      "stateMutability": "view",
      "type": "function",
      "constant": true
    },
    {
      "inputs": [
        {
          "internalType": "address",
          "name": "owner",
          "type": "address"
        },
        {
          "internalType": "address",
          "name": "operator",
          "type": "address"
        }
      ],
      "name": "isApprovedForAll",
      "outputs": [
        {
          "internalType": "bool",
          "name": "",
          "type": "bool"
        }
      ],
      "stateMutability": "view",
      "type": "function",
      "constant": true
    },
    {
      "inputs": [],
      "name": "name",
      "outputs": [
        {
          "internalType": "string",
          "name": "",
          "type": "string"
        }
      ],
      "stateMutability": "view",
      "type": "function",
      "constant": true
    },
    {
      "inputs": [],
      "name": "owner",
      "outputs": [
        {
          "internalType": "address",
          "name": "",
          "type": "address"
        }
      ],
      "stateMutability": "view",
      "type": "function",
      "constant": true
    },
    {
      "inputs": [
        {
          "internalType": "uint256",
          "name": "tokenId",
          "type": "uint256"
        }
      ],
      "name": "ownerOf",
      "outputs": [
        {
          "internalType": "address",
          "name": "",
          "type": "address"
        }
      ],
      "stateMutability": "view",
      "type": "function",
      "constant": true
    },
    {
      "inputs": [],
      "name": "renounceOwnership",
      "outputs": [],
      "stateMutability": "nonpayable",
      "type": "function"
    },
    {
      "inputs": [
        {
          "internalType": "address",
          "name": "from",
          "type": "address"
        },
        {
          "internalType": "address",
          "name": "to",
          "type": "address"
        },
        {
          "internalType": "uint256",
          "name": "tokenId",
          "type": "uint256"
        }
      ],
      "name": "safeTransferFrom",
      "outputs": [],
      "stateMutability": "nonpayable",
      "type": "function"
    },
    {
      "inputs": [
        {
          "internalType": "address",
          "name": "from",
          "type": "address"
        },
        {
          "internalType": "address",
          "name": "to",
          "type": "address"
        },
        {
          "internalType": "uint256",
          "name": "tokenId",
          "type": "uint256"
        },
        {
          "internalType": "bytes",
          "name": "_data",
          "type": "bytes"
        }
      ],
      "name": "safeTransferFrom",
      "outputs": [],
      "stateMutability": "nonpayable",
      "type": "function"
    },
    {
      "inputs": [
        {
          "internalType": "address",
          "name": "operator",
          "type": "address"
        },
        {
          "internalType": "bool",
          "name": "approved",
          "type": "bool"
        }
      ],
      "name": "setApprovalForAll",
      "outputs": [],
      "stateMutability": "nonpayable",
      "type": "function"
    },
    {
      "inputs": [
        {
          "internalType": "bytes4",
          "name": "interfaceId",
          "type": "bytes4"
        }
      ],
      "name": "supportsInterface",
      "outputs": [
        {
          "internalType": "bool",
          "name": "",
          "type": "bool"
        }
      ],
      "stateMutability": "view",
      "type": "function",
      "constant": true
    },
    {
      "inputs": [],
      "name": "symbol",
      "outputs": [
        {
          "internalType": "string",
          "name": "",
          "type": "string"
        }
      ],
      "stateMutability": "view",
      "type": "function",
      "constant": true
    },
    {
      "inputs": [
        {
          "internalType": "uint256",
          "name": "tokenId",
          "type": "uint256"
        }
      ],
      "name": "tokenURI",
      "outputs": [
        {
          "internalType": "string",
          "name": "",
          "type": "string"
        }
      ],
      "stateMutability": "view",
      "type": "function",
      "constant": true
    },
    {
      "inputs": [
        {
          "internalType": "address",
          "name": "from",
          "type": "address"
        },
        {
          "internalType": "address",
          "name": "to",
          "type": "address"
        },
        {
          "internalType": "uint256",
          "name": "tokenId",
          "type": "uint256"
        }
      ],
      "name": "transferFrom",
      "outputs": [],
      "stateMutability": "nonpayable",
      "type": "function"
    },
    {
      "inputs": [
        {
          "internalType": "address",
          "name": "newOwner",
          "type": "address"
        }
      ],
      "name": "transferOwnership",
      "outputs": [],
      "stateMutability": "nonpayable",
      "type": "function"
    },
    {
      "inputs": [
        {
          "internalType": "string",
          "name": "_ipfs",
          "type": "string"
        }
      ],
      "name": "createToken",
      "outputs": [],
      "stateMutability": "nonpayable",
      "type": "function"
    },
    {
      "inputs": [
        {
          "internalType": "uint256",
          "name": "_tokenId",
          "type": "uint256"
        }
      ],
      "name": "buyToken",
      "outputs": [],
      "stateMutability": "payable",
      "type": "function",
      "payable": true
    },
    {
      "inputs": [
        {
          "internalType": "uint256",
          "name": "_tokenId",
          "type": "uint256"
        },
        {
          "internalType": "uint256",
          "name": "_price",
          "type": "uint256"
        }
      ],
      "name": "sellToken",
      "outputs": [],
      "stateMutability": "nonpayable",
      "type": "function"
    },
    {
      "inputs": [
        {
          "internalType": "uint256",
          "name": "_tokenId",
          "type": "uint256"
        }
      ],
      "name": "getPrice",
      "outputs": [
        {
          "internalType": "uint256",
          "name": "",
          "type": "uint256"
        }
      ],
      "stateMutability": "view",
      "type": "function",
      "constant": true
    },
    {
      "inputs": [
        {
          "internalType": "uint256",
          "name": "_tokenId",
          "type": "uint256"
        }
      ],
      "name": "isForSale",
      "outputs": [
        {
          "internalType": "bool",
          "name": "",
          "type": "bool"
        }
      ],
      "stateMutability": "view",
      "type": "function",
      "constant": true
    },
    {
      "inputs": [
        {
          "internalType": "uint256",
          "name": "_tokenId",
          "type": "uint256"
        }
      ],
      "name": "getIpfsFromId",
      "outputs": [
        {
          "internalType": "string",
          "name": "",
          "type": "string"
        }
      ],
      "stateMutability": "view",
      "type": "function",
      "constant": true
    },
    {
      "inputs": [
        {
          "internalType": "string",
          "name": "_ipfs",
          "type": "string"
        }
      ],
      "name": "getIdFromIpfs",
      "outputs": [
        {
          "internalType": "uint256",
          "name": "",
          "type": "uint256"
        }
      ],
      "stateMutability": "view",
      "type": "function",
      "constant": true
    },
    {
      "inputs": [
        {
          "internalType": "uint256",
          "name": "_tokenId",
          "type": "uint256"
        }
      ],
      "name": "getAddressFromId",
      "outputs": [
        {
          "internalType": "address",
          "name": "",
          "type": "address"
        }
      ],
      "stateMutability": "view",
      "type": "function",
      "constant": true
    }
  ],
  "bytecode": "0x60806040523480156200001157600080fd5b506040518060400160405280600481526020017f4974656d000000000000000000000000000000000000000000000000000000008152506040518060400160405280600381526020017f49544d000000000000000000000000000000000000000000000000000000000081525081600090805190602001906200009692919062000179565b508060019080519060200190620000af92919062000179565b5050506000620000c46200017160201b60201c565b905080600660006101000a81548173ffffffffffffffffffffffffffffffffffffffff021916908373ffffffffffffffffffffffffffffffffffffffff1602179055508073ffffffffffffffffffffffffffffffffffffffff16600073ffffffffffffffffffffffffffffffffffffffff167f8be0079c531659141344cd1fd0a4f28419497f9722a3daafe3b4186f6b6457e060405160405180910390a3506000600d819055506200028e565b600033905090565b828054620001879062000229565b90600052602060002090601f016020900481019282620001ab5760008555620001f7565b82601f10620001c657805160ff1916838001178555620001f7565b82800160010185558215620001f7579182015b82811115620001f6578251825591602001919060010190620001d9565b5b5090506200020691906200020a565b5090565b5b80821115620002255760008160009055506001016200020b565b5090565b600060028204905060018216806200024257607f821691505b602082108114156200025957620002586200025f565b5b50919050565b7f4e487b7100000000000000000000000000000000000000000000000000000000600052602260045260246000fd5b6137ab806200029e6000396000f3fe60806040526004361061014b5760003560e01c8063715018a6116100b6578063b88d4fde1161006f578063b88d4fde146104a5578063c87b56dd146104ce578063e75722301461050b578063e985e9c514610548578063f16fec4314610585578063f2fde38b146105c25761014b565b8063715018a61461039557806372166b6b146103ac5780638546d002146103e95780638da5cb5b1461042657806395d89b4114610451578063a22cb4651461047c5761014b565b80632d296bf1116101085780632d296bf11461027057806342842e0e1461028c57806345576f94146102b55780636352211e146102de578063660c1fe71461031b57806370a08231146103585761014b565b806301ffc9a71461015057806306fdde031461018d578063081812fc146101b8578063095ea7b3146101f55780631897bcf31461021e57806323b872dd14610247575b600080fd5b34801561015c57600080fd5b506101776004803603810190610172919061278b565b6105eb565b60405161018491906130a3565b60405180910390f35b34801561019957600080fd5b506101a26106cd565b6040516101af91906130be565b60405180910390f35b3480156101c457600080fd5b506101df60048036038101906101da919061281e565b61075f565b6040516101ec919061303c565b60405180910390f35b34801561020157600080fd5b5061021c6004803603810190610217919061274f565b6107e4565b005b34801561022a57600080fd5b5061024560048036038101906102409190612847565b6108fc565b005b34801561025357600080fd5b5061026e60048036038101906102699190612649565b610a2a565b005b61028a6004803603810190610285919061281e565b610a8a565b005b34801561029857600080fd5b506102b360048036038101906102ae9190612649565b610b6a565b005b3480156102c157600080fd5b506102dc60048036038101906102d791906127dd565b610b8a565b005b3480156102ea57600080fd5b506103056004803603810190610300919061281e565b610cee565b604051610312919061303c565b60405180910390f35b34801561032757600080fd5b50610342600480360381019061033d91906127dd565b610da0565b60405161034f9190613340565b60405180910390f35b34801561036457600080fd5b5061037f600480360381019061037a91906125e4565b610dc8565b60405161038c9190613340565b60405180910390f35b3480156103a157600080fd5b506103aa610e80565b005b3480156103b857600080fd5b506103d360048036038101906103ce919061281e565b610fbd565b6040516103e0919061303c565b60405180910390f35b3480156103f557600080fd5b50610410600480360381019061040b919061281e565b610ffa565b60405161041d91906130a3565b60405180910390f35b34801561043257600080fd5b5061043b611069565b604051610448919061303c565b60405180910390f35b34801561045d57600080fd5b50610466611093565b60405161047391906130be565b60405180910390f35b34801561048857600080fd5b506104a3600480360381019061049e9190612713565b611125565b005b3480156104b157600080fd5b506104cc60048036038101906104c79190612698565b6112a6565b005b3480156104da57600080fd5b506104f560048036038101906104f0919061281e565b611308565b60405161050291906130be565b60405180910390f35b34801561051757600080fd5b50610532600480360381019061052d919061281e565b6113af565b60405161053f9190613340565b60405180910390f35b34801561055457600080fd5b5061056f600480360381019061056a919061260d565b6113cc565b60405161057c91906130a3565b60405180910390f35b34801561059157600080fd5b506105ac60048036038101906105a7919061281e565b611460565b6040516105b991906130be565b60405180910390f35b3480156105ce57600080fd5b506105e960048036038101906105e491906125e4565b611550565b005b60007f80ac58cd000000000000000000000000000000000000000000000000000000007bffffffffffffffffffffffffffffffffffffffffffffffffffffffff1916827bffffffffffffffffffffffffffffffffffffffffffffffffffffffff191614806106b657507f5b5e139f000000000000000000000000000000000000000000000000000000007bffffffffffffffffffffffffffffffffffffffffffffffffffffffff1916827bffffffffffffffffffffffffffffffffffffffffffffffffffffffff1916145b806106c657506106c5826116fc565b5b9050919050565b6060600080546106dc906135a0565b80601f0160208091040260200160405190810160405280929190818152602001828054610708906135a0565b80156107555780601f1061072a57610100808354040283529160200191610755565b820191906000526020600020905b81548152906001019060200180831161073857829003601f168201915b5050505050905090565b600061076a82611766565b6107a9576040517f08c379a00000000000000000000000000000000000000000000000000000000081526004016107a090613280565b60405180910390fd5b6004600083815260200190815260200160002060009054906101000a900473ffffffffffffffffffffffffffffffffffffffff169050919050565b60006107ef82610cee565b90508073ffffffffffffffffffffffffffffffffffffffff168373ffffffffffffffffffffffffffffffffffffffff161415610860576040517f08c379a000000000000000000000000000000000000000000000000000000000815260040161085790613300565b60405180910390fd5b8073ffffffffffffffffffffffffffffffffffffffff1661087f6117d2565b73ffffffffffffffffffffffffffffffffffffffff1614806108ae57506108ad816108a86117d2565b6113cc565b5b6108ed576040517f08c379a00000000000000000000000000000000000000000000000000000000081526004016108e490613200565b60405180910390fd5b6108f783836117da565b505050565b600d54821115610941576040517f08c379a0000000000000000000000000000000000000000000000000000000008152600401610938906131c0565b60405180910390fd5b6007600083815260200190815260200160002060009054906101000a900473ffffffffffffffffffffffffffffffffffffffff1673ffffffffffffffffffffffffffffffffffffffff163373ffffffffffffffffffffffffffffffffffffffff16146109e2576040517f08c379a00000000000000000000000000000000000000000000000000000000081526004016109d990613140565b60405180910390fd5b6001600b600084815260200190815260200160002060006101000a81548160ff02191690831515021790555080600c6000848152602001908152602001600020819055505050565b610a3b610a356117d2565b82611893565b610a7a576040517f08c379a0000000000000000000000000000000000000000000000000000000008152600401610a7190613320565b60405180910390fd5b610a85838383611971565b505050565b60011515600b600083815260200190815260200160002060009054906101000a900460ff16151514610af1576040517f08c379a0000000000000000000000000000000000000000000000000000000008152600401610ae890613120565b60405180910390fd5b60006007600083815260200190815260200160002060009054906101000a900473ffffffffffffffffffffffffffffffffffffffff1690506000339050610b39828285611bcd565b6000600b600085815260200190815260200160002060006101000a81548160ff021916908315150217905550505050565b610b85838383604051806020016040528060008152506112a6565b505050565b3360076000600d54815260200190815260200160002060006101000a81548173ffffffffffffffffffffffffffffffffffffffff021916908373ffffffffffffffffffffffffffffffffffffffff160217905550610c316001600860003373ffffffffffffffffffffffffffffffffffffffff1673ffffffffffffffffffffffffffffffffffffffff16815260200190815260200160002054611dc690919063ffffffff16565b600860003373ffffffffffffffffffffffffffffffffffffffff1673ffffffffffffffffffffffffffffffffffffffff168152602001908152602001600020819055508060096000600d5481526020019081526020016000209080519060200190610c9d929190612408565b50600d54600a82604051610cb19190613001565b908152602001604051809103902081905550610ccf33600d54611ddc565b610ce56001600d54611dc690919063ffffffff16565b600d8190555050565b6000806002600084815260200190815260200160002060009054906101000a900473ffffffffffffffffffffffffffffffffffffffff169050600073ffffffffffffffffffffffffffffffffffffffff168173ffffffffffffffffffffffffffffffffffffffff161415610d97576040517f08c379a0000000000000000000000000000000000000000000000000000000008152600401610d8e90613240565b60405180910390fd5b80915050919050565b6000600a82604051610db29190613001565b9081526020016040518091039020549050919050565b60008073ffffffffffffffffffffffffffffffffffffffff168273ffffffffffffffffffffffffffffffffffffffff161415610e39576040517f08c379a0000000000000000000000000000000000000000000000000000000008152600401610e3090613220565b60405180910390fd5b600360008373ffffffffffffffffffffffffffffffffffffffff1673ffffffffffffffffffffffffffffffffffffffff168152602001908152602001600020549050919050565b610e886117d2565b73ffffffffffffffffffffffffffffffffffffffff16610ea6611069565b73ffffffffffffffffffffffffffffffffffffffff1614610efc576040517f08c379a0000000000000000000000000000000000000000000000000000000008152600401610ef3906132a0565b60405180910390fd5b600073ffffffffffffffffffffffffffffffffffffffff16600660009054906101000a900473ffffffffffffffffffffffffffffffffffffffff1673ffffffffffffffffffffffffffffffffffffffff167f8be0079c531659141344cd1fd0a4f28419497f9722a3daafe3b4186f6b6457e060405160405180910390a36000600660006101000a81548173ffffffffffffffffffffffffffffffffffffffff021916908373ffffffffffffffffffffffffffffffffffffffff160217905550565b60006007600083815260200190815260200160002060009054906101000a900473ffffffffffffffffffffffffffffffffffffffff169050919050565b6000600d54821115611041576040517f08c379a0000000000000000000000000000000000000000000000000000000008152600401611038906131c0565b60405180910390fd5b600b600083815260200190815260200160002060009054906101000a900460ff169050919050565b6000600660009054906101000a900473ffffffffffffffffffffffffffffffffffffffff16905090565b6060600180546110a2906135a0565b80601f01602080910402602001604051908101604052809291908181526020018280546110ce906135a0565b801561111b5780601f106110f05761010080835404028352916020019161111b565b820191906000526020600020905b8154815290600101906020018083116110fe57829003601f168201915b5050505050905090565b61112d6117d2565b73ffffffffffffffffffffffffffffffffffffffff168273ffffffffffffffffffffffffffffffffffffffff16141561119b576040517f08c379a0000000000000000000000000000000000000000000000000000000008152600401611192906131a0565b60405180910390fd5b80600560006111a86117d2565b73ffffffffffffffffffffffffffffffffffffffff1673ffffffffffffffffffffffffffffffffffffffff16815260200190815260200160002060008473ffffffffffffffffffffffffffffffffffffffff1673ffffffffffffffffffffffffffffffffffffffff16815260200190815260200160002060006101000a81548160ff0219169083151502179055508173ffffffffffffffffffffffffffffffffffffffff166112556117d2565b73ffffffffffffffffffffffffffffffffffffffff167f17307eab39ab6107e8899845ad3d59bd9653f200f220920489ca2b5937696c318360405161129a91906130a3565b60405180910390a35050565b6112b76112b16117d2565b83611893565b6112f6576040517f08c379a00000000000000000000000000000000000000000000000000000000081526004016112ed90613320565b60405180910390fd5b61130284848484611dfa565b50505050565b606061131382611766565b611352576040517f08c379a0000000000000000000000000000000000000000000000000000000008152600401611349906132e0565b60405180910390fd5b600061135c611e56565b9050600081511161137c57604051806020016040528060008152506113a7565b8061138684611e6d565b604051602001611397929190613018565b6040516020818303038152906040525b915050919050565b6000600c6000838152602001908152602001600020549050919050565b6000600560008473ffffffffffffffffffffffffffffffffffffffff1673ffffffffffffffffffffffffffffffffffffffff16815260200190815260200160002060008373ffffffffffffffffffffffffffffffffffffffff1673ffffffffffffffffffffffffffffffffffffffff16815260200190815260200160002060009054906101000a900460ff16905092915050565b6060600d548211156114a7576040517f08c379a000000000000000000000000000000000000000000000000000000000815260040161149e906131c0565b60405180910390fd5b60006009600084815260200190815260200160002080546114c7906135a0565b80601f01602080910402602001604051908101604052809291908181526020018280546114f3906135a0565b80156115405780601f1061151557610100808354040283529160200191611540565b820191906000526020600020905b81548152906001019060200180831161152357829003601f168201915b5050505050905080915050919050565b6115586117d2565b73ffffffffffffffffffffffffffffffffffffffff16611576611069565b73ffffffffffffffffffffffffffffffffffffffff16146115cc576040517f08c379a00000000000000000000000000000000000000000000000000000000081526004016115c3906132a0565b60405180910390fd5b600073ffffffffffffffffffffffffffffffffffffffff168173ffffffffffffffffffffffffffffffffffffffff16141561163c576040517f08c379a000000000000000000000000000000000000000000000000000000000815260040161163390613100565b60405180910390fd5b8073ffffffffffffffffffffffffffffffffffffffff16600660009054906101000a900473ffffffffffffffffffffffffffffffffffffffff1673ffffffffffffffffffffffffffffffffffffffff167f8be0079c531659141344cd1fd0a4f28419497f9722a3daafe3b4186f6b6457e060405160405180910390a380600660006101000a81548173ffffffffffffffffffffffffffffffffffffffff021916908373ffffffffffffffffffffffffffffffffffffffff16021790555050565b60007f01ffc9a7000000000000000000000000000000000000000000000000000000007bffffffffffffffffffffffffffffffffffffffffffffffffffffffff1916827bffffffffffffffffffffffffffffffffffffffffffffffffffffffff1916149050919050565b60008073ffffffffffffffffffffffffffffffffffffffff166002600084815260200190815260200160002060009054906101000a900473ffffffffffffffffffffffffffffffffffffffff1673ffffffffffffffffffffffffffffffffffffffff1614159050919050565b600033905090565b816004600083815260200190815260200160002060006101000a81548173ffffffffffffffffffffffffffffffffffffffff021916908373ffffffffffffffffffffffffffffffffffffffff160217905550808273ffffffffffffffffffffffffffffffffffffffff1661184d83610cee565b73ffffffffffffffffffffffffffffffffffffffff167f8c5be1e5ebec7d5bd14f71427d1e84f3dd0314c0f7b2291e5b200ac8c7c3b92560405160405180910390a45050565b600061189e82611766565b6118dd576040517f08c379a00000000000000000000000000000000000000000000000000000000081526004016118d4906131e0565b60405180910390fd5b60006118e883610cee565b90508073ffffffffffffffffffffffffffffffffffffffff168473ffffffffffffffffffffffffffffffffffffffff16148061195757508373ffffffffffffffffffffffffffffffffffffffff1661193f8461075f565b73ffffffffffffffffffffffffffffffffffffffff16145b80611968575061196781856113cc565b5b91505092915050565b8273ffffffffffffffffffffffffffffffffffffffff1661199182610cee565b73ffffffffffffffffffffffffffffffffffffffff16146119e7576040517f08c379a00000000000000000000000000000000000000000000000000000000081526004016119de906132c0565b60405180910390fd5b600073ffffffffffffffffffffffffffffffffffffffff168273ffffffffffffffffffffffffffffffffffffffff161415611a57576040517f08c379a0000000000000000000000000000000000000000000000000000000008152600401611a4e90613180565b60405180910390fd5b611a6283838361201a565b611a6d6000826117da565b6001600360008573ffffffffffffffffffffffffffffffffffffffff1673ffffffffffffffffffffffffffffffffffffffff1681526020019081526020016000206000828254611abd91906134b6565b925050819055506001600360008473ffffffffffffffffffffffffffffffffffffffff1673ffffffffffffffffffffffffffffffffffffffff1681526020019081526020016000206000828254611b14919061342f565b92505081905550816002600083815260200190815260200160002060006101000a81548173ffffffffffffffffffffffffffffffffffffffff021916908373ffffffffffffffffffffffffffffffffffffffff160217905550808273ffffffffffffffffffffffffffffffffffffffff168473ffffffffffffffffffffffffffffffffffffffff167fddf252ad1be2c89b69c2b068fc378daa952ba7f163c4a11628f55a4df523b3ef60405160405180910390a4505050565b8273ffffffffffffffffffffffffffffffffffffffff166007600083815260200190815260200160002060009054906101000a900473ffffffffffffffffffffffffffffffffffffffff1673ffffffffffffffffffffffffffffffffffffffff1614611c3857600080fd5b611c43838383610b6a565b816007600083815260200190815260200160002060006101000a81548173ffffffffffffffffffffffffffffffffffffffff021916908373ffffffffffffffffffffffffffffffffffffffff160217905550611ce86001600860008673ffffffffffffffffffffffffffffffffffffffff1673ffffffffffffffffffffffffffffffffffffffff1681526020019081526020016000205461201f90919063ffffffff16565b600860008573ffffffffffffffffffffffffffffffffffffffff1673ffffffffffffffffffffffffffffffffffffffff16815260200190815260200160002081905550611d7e6001600860008573ffffffffffffffffffffffffffffffffffffffff1673ffffffffffffffffffffffffffffffffffffffff16815260200190815260200160002054611dc690919063ffffffff16565b600860008473ffffffffffffffffffffffffffffffffffffffff1673ffffffffffffffffffffffffffffffffffffffff16815260200190815260200160002081905550505050565b60008183611dd4919061342f565b905092915050565b611df6828260405180602001604052806000815250612035565b5050565b611e05848484611971565b611e1184848484612090565b611e50576040517f08c379a0000000000000000000000000000000000000000000000000000000008152600401611e47906130e0565b60405180910390fd5b50505050565b606060405180602001604052806000815250905090565b60606000821415611eb5576040518060400160405280600181526020017f30000000000000000000000000000000000000000000000000000000000000008152509050612015565b600082905060005b60008214611ee7578080611ed0906135d2565b915050600a82611ee09190613485565b9150611ebd565b60008167ffffffffffffffff811115611f29577f4e487b7100000000000000000000000000000000000000000000000000000000600052604160045260246000fd5b6040519080825280601f01601f191660200182016040528015611f5b5781602001600182028036833780820191505090505b5090505b6000851461200e57600182611f7491906134b6565b9150600a85611f83919061361b565b6030611f8f919061342f565b60f81b818381518110611fcb577f4e487b7100000000000000000000000000000000000000000000000000000000600052603260045260246000fd5b60200101907effffffffffffffffffffffffffffffffffffffffffffffffffffffffffffff1916908160001a905350600a856120079190613485565b9450611f5f565b8093505050505b919050565b505050565b6000818361202d91906134b6565b905092915050565b61203f8383612227565b61204c6000848484612090565b61208b576040517f08c379a0000000000000000000000000000000000000000000000000000000008152600401612082906130e0565b60405180910390fd5b505050565b60006120b18473ffffffffffffffffffffffffffffffffffffffff166123f5565b1561221a578373ffffffffffffffffffffffffffffffffffffffff1663150b7a026120da6117d2565b8786866040518563ffffffff1660e01b81526004016120fc9493929190613057565b602060405180830381600087803b15801561211657600080fd5b505af192505050801561214757506040513d601f19601f8201168201806040525081019061214491906127b4565b60015b6121ca573d8060008114612177576040519150601f19603f3d011682016040523d82523d6000602084013e61217c565b606091505b506000815114156121c2576040517f08c379a00000000000000000000000000000000000000000000000000000000081526004016121b9906130e0565b60405180910390fd5b805181602001fd5b63150b7a0260e01b7bffffffffffffffffffffffffffffffffffffffffffffffffffffffff1916817bffffffffffffffffffffffffffffffffffffffffffffffffffffffff19161491505061221f565b600190505b949350505050565b600073ffffffffffffffffffffffffffffffffffffffff168273ffffffffffffffffffffffffffffffffffffffff161415612297576040517f08c379a000000000000000000000000000000000000000000000000000000000815260040161228e90613260565b60405180910390fd5b6122a081611766565b156122e0576040517f08c379a00000000000000000000000000000000000000000000000000000000081526004016122d790613160565b60405180910390fd5b6122ec6000838361201a565b6001600360008473ffffffffffffffffffffffffffffffffffffffff1673ffffffffffffffffffffffffffffffffffffffff168152602001908152602001600020600082825461233c919061342f565b92505081905550816002600083815260200190815260200160002060006101000a81548173ffffffffffffffffffffffffffffffffffffffff021916908373ffffffffffffffffffffffffffffffffffffffff160217905550808273ffffffffffffffffffffffffffffffffffffffff16600073ffffffffffffffffffffffffffffffffffffffff167fddf252ad1be2c89b69c2b068fc378daa952ba7f163c4a11628f55a4df523b3ef60405160405180910390a45050565b600080823b905060008111915050919050565b828054612414906135a0565b90600052602060002090601f016020900481019282612436576000855561247d565b82601f1061244f57805160ff191683800117855561247d565b8280016001018555821561247d579182015b8281111561247c578251825591602001919060010190612461565b5b50905061248a919061248e565b5090565b5b808211156124a757600081600090555060010161248f565b5090565b60006124be6124b98461338c565b61335b565b9050828152602081018484840111156124d657600080fd5b6124e184828561355e565b509392505050565b60006124fc6124f7846133bc565b61335b565b90508281526020810184848401111561251457600080fd5b61251f84828561355e565b509392505050565b60008135905061253681613719565b92915050565b60008135905061254b81613730565b92915050565b60008135905061256081613747565b92915050565b60008151905061257581613747565b92915050565b600082601f83011261258c57600080fd5b813561259c8482602086016124ab565b91505092915050565b600082601f8301126125b657600080fd5b81356125c68482602086016124e9565b91505092915050565b6000813590506125de8161375e565b92915050565b6000602082840312156125f657600080fd5b600061260484828501612527565b91505092915050565b6000806040838503121561262057600080fd5b600061262e85828601612527565b925050602061263f85828601612527565b9150509250929050565b60008060006060848603121561265e57600080fd5b600061266c86828701612527565b935050602061267d86828701612527565b925050604061268e868287016125cf565b9150509250925092565b600080600080608085870312156126ae57600080fd5b60006126bc87828801612527565b94505060206126cd87828801612527565b93505060406126de878288016125cf565b925050606085013567ffffffffffffffff8111156126fb57600080fd5b6127078782880161257b565b91505092959194509250565b6000806040838503121561272657600080fd5b600061273485828601612527565b92505060206127458582860161253c565b9150509250929050565b6000806040838503121561276257600080fd5b600061277085828601612527565b9250506020612781858286016125cf565b9150509250929050565b60006020828403121561279d57600080fd5b60006127ab84828501612551565b91505092915050565b6000602082840312156127c657600080fd5b60006127d484828501612566565b91505092915050565b6000602082840312156127ef57600080fd5b600082013567ffffffffffffffff81111561280957600080fd5b612815848285016125a5565b91505092915050565b60006020828403121561283057600080fd5b600061283e848285016125cf565b91505092915050565b6000806040838503121561285a57600080fd5b6000612868858286016125cf565b9250506020612879858286016125cf565b9150509250929050565b61288c816134ea565b82525050565b61289b816134fc565b82525050565b60006128ac826133ec565b6128b68185613402565b93506128c681856020860161356d565b6128cf81613708565b840191505092915050565b60006128e5826133f7565b6128ef8185613413565b93506128ff81856020860161356d565b61290881613708565b840191505092915050565b600061291e826133f7565b6129288185613424565b935061293881856020860161356d565b80840191505092915050565b6000612951603283613413565b91507f4552433732313a207472616e7366657220746f206e6f6e20455243373231526560008301527f63656976657220696d706c656d656e74657200000000000000000000000000006020830152604082019050919050565b60006129b7602683613413565b91507f4f776e61626c653a206e6577206f776e657220697320746865207a65726f206160008301527f64647265737300000000000000000000000000000000000000000000000000006020830152604082019050919050565b6000612a1d601a83613413565b91507f5468697320546f6b656e206973206e6f7420666f722073616c650000000000006000830152602082019050919050565b6000612a5d602483613413565b91507f74686973206164647265737320646f6573206e6f74206f776e2074686973207460008301527f6f6b656e000000000000000000000000000000000000000000000000000000006020830152604082019050919050565b6000612ac3601c83613413565b91507f4552433732313a20746f6b656e20616c7265616479206d696e746564000000006000830152602082019050919050565b6000612b03602483613413565b91507f4552433732313a207472616e7366657220746f20746865207a65726f2061646460008301527f72657373000000000000000000000000000000000000000000000000000000006020830152604082019050919050565b6000612b69601983613413565b91507f4552433732313a20617070726f766520746f2063616c6c6572000000000000006000830152602082019050919050565b6000612ba9602083613413565b91507f746f6b656e2077697468207468697320496420646f65736e27742065786973746000830152602082019050919050565b6000612be9602c83613413565b91507f4552433732313a206f70657261746f7220717565727920666f72206e6f6e657860008301527f697374656e7420746f6b656e00000000000000000000000000000000000000006020830152604082019050919050565b6000612c4f603883613413565b91507f4552433732313a20617070726f76652063616c6c6572206973206e6f74206f7760008301527f6e6572206e6f7220617070726f76656420666f7220616c6c00000000000000006020830152604082019050919050565b6000612cb5602a83613413565b91507f4552433732313a2062616c616e636520717565727920666f7220746865207a6560008301527f726f2061646472657373000000000000000000000000000000000000000000006020830152604082019050919050565b6000612d1b602983613413565b91507f4552433732313a206f776e657220717565727920666f72206e6f6e657869737460008301527f656e7420746f6b656e00000000000000000000000000000000000000000000006020830152604082019050919050565b6000612d81602083613413565b91507f4552433732313a206d696e7420746f20746865207a65726f20616464726573736000830152602082019050919050565b6000612dc1602c83613413565b91507f4552433732313a20617070726f76656420717565727920666f72206e6f6e657860008301527f697374656e7420746f6b656e00000000000000000000000000000000000000006020830152604082019050919050565b6000612e27602083613413565b91507f4f776e61626c653a2063616c6c6572206973206e6f7420746865206f776e65726000830152602082019050919050565b6000612e67602983613413565b91507f4552433732313a207472616e73666572206f6620746f6b656e2074686174206960008301527f73206e6f74206f776e00000000000000000000000000000000000000000000006020830152604082019050919050565b6000612ecd602f83613413565b91507f4552433732314d657461646174613a2055524920717565727920666f72206e6f60008301527f6e6578697374656e7420746f6b656e00000000000000000000000000000000006020830152604082019050919050565b6000612f33602183613413565b91507f4552433732313a20617070726f76616c20746f2063757272656e74206f776e6560008301527f72000000000000000000000000000000000000000000000000000000000000006020830152604082019050919050565b6000612f99603183613413565b91507f4552433732313a207472616e736665722063616c6c6572206973206e6f74206f60008301527f776e6572206e6f7220617070726f7665640000000000000000000000000000006020830152604082019050919050565b612ffb81613554565b82525050565b600061300d8284612913565b915081905092915050565b60006130248285612913565b91506130308284612913565b91508190509392505050565b60006020820190506130516000830184612883565b92915050565b600060808201905061306c6000830187612883565b6130796020830186612883565b6130866040830185612ff2565b818103606083015261309881846128a1565b905095945050505050565b60006020820190506130b86000830184612892565b92915050565b600060208201905081810360008301526130d881846128da565b905092915050565b600060208201905081810360008301526130f981612944565b9050919050565b60006020820190508181036000830152613119816129aa565b9050919050565b6000602082019050818103600083015261313981612a10565b9050919050565b6000602082019050818103600083015261315981612a50565b9050919050565b6000602082019050818103600083015261317981612ab6565b9050919050565b6000602082019050818103600083015261319981612af6565b9050919050565b600060208201905081810360008301526131b981612b5c565b9050919050565b600060208201905081810360008301526131d981612b9c565b9050919050565b600060208201905081810360008301526131f981612bdc565b9050919050565b6000602082019050818103600083015261321981612c42565b9050919050565b6000602082019050818103600083015261323981612ca8565b9050919050565b6000602082019050818103600083015261325981612d0e565b9050919050565b6000602082019050818103600083015261327981612d74565b9050919050565b6000602082019050818103600083015261329981612db4565b9050919050565b600060208201905081810360008301526132b981612e1a565b9050919050565b600060208201905081810360008301526132d981612e5a565b9050919050565b600060208201905081810360008301526132f981612ec0565b9050919050565b6000602082019050818103600083015261331981612f26565b9050919050565b6000602082019050818103600083015261333981612f8c565b9050919050565b60006020820190506133556000830184612ff2565b92915050565b6000604051905081810181811067ffffffffffffffff82111715613382576133816136d9565b5b8060405250919050565b600067ffffffffffffffff8211156133a7576133a66136d9565b5b601f19601f8301169050602081019050919050565b600067ffffffffffffffff8211156133d7576133d66136d9565b5b601f19601f8301169050602081019050919050565b600081519050919050565b600081519050919050565b600082825260208201905092915050565b600082825260208201905092915050565b600081905092915050565b600061343a82613554565b915061344583613554565b9250827fffffffffffffffffffffffffffffffffffffffffffffffffffffffffffffffff0382111561347a5761347961364c565b5b828201905092915050565b600061349082613554565b915061349b83613554565b9250826134ab576134aa61367b565b5b828204905092915050565b60006134c182613554565b91506134cc83613554565b9250828210156134df576134de61364c565b5b828203905092915050565b60006134f582613534565b9050919050565b60008115159050919050565b60007fffffffff0000000000000000000000000000000000000000000000000000000082169050919050565b600073ffffffffffffffffffffffffffffffffffffffff82169050919050565b6000819050919050565b82818337600083830152505050565b60005b8381101561358b578082015181840152602081019050613570565b8381111561359a576000848401525b50505050565b600060028204905060018216806135b857607f821691505b602082108114156135cc576135cb6136aa565b5b50919050565b60006135dd82613554565b91507fffffffffffffffffffffffffffffffffffffffffffffffffffffffffffffffff8214156136105761360f61364c565b5b600182019050919050565b600061362682613554565b915061363183613554565b9250826136415761364061367b565b5b828206905092915050565b7f4e487b7100000000000000000000000000000000000000000000000000000000600052601160045260246000fd5b7f4e487b7100000000000000000000000000000000000000000000000000000000600052601260045260246000fd5b7f4e487b7100000000000000000000000000000000000000000000000000000000600052602260045260246000fd5b7f4e487b7100000000000000000000000000000000000000000000000000000000600052604160045260246000fd5b6000601f19601f8301169050919050565b613722816134ea565b811461372d57600080fd5b50565b613739816134fc565b811461374457600080fd5b50565b61375081613508565b811461375b57600080fd5b50565b61376781613554565b811461377257600080fd5b5056fea2646970667358221220b121fd234dc53e78c2df88af2572dd99df0ea29e24f038e67edb60c9187dc6b064736f6c63430008000033",
  "immutableReferences": {},
  "source": "// SPDX-License-Identifier: MIT\r\n\r\npragma solidity 0.8.0;\r\n\r\nimport \"../../node_modules/@openzeppelin/contracts/token/ERC721/ERC721.sol\";\r\nimport \"../../node_modules/@openzeppelin/contracts/utils/math/safeMath.sol\";\r\nimport \"../../node_modules/@openzeppelin/contracts/access/Ownable.sol\";\r\n\r\ncontract myToken is ERC721, Ownable {\r\n\r\n    using SafeMath for uint;\r\n\r\n    mapping(uint => address) tokenToAddress;\r\n    mapping(address => uint) addressToTokens;\r\n    mapping(uint => string) tokenToIpfs;\r\n    mapping(string => uint) ipfsToToken;\r\n    mapping(uint => bool) forSale;\r\n    mapping(uint => uint) priceOfToken;\r\n    uint tokenId;\r\n\r\n    constructor() ERC721(\"Item\", \"ITM\") {\r\n        tokenId = 0;\r\n    }\r\n\r\n    function createToken(string memory _ipfs) public {\r\n\r\n        tokenToAddress[tokenId] = msg.sender;\r\n        addressToTokens[msg.sender] = addressToTokens[msg.sender].add(1);\r\n        tokenToIpfs[tokenId] = _ipfs;\r\n        ipfsToToken[_ipfs] = tokenId;\r\n        _safeMint(msg.sender, tokenId);\r\n        tokenId = tokenId.add(1);\r\n\r\n    }\r\n\r\n    function sendToken(address _from, address payable _to, uint _tokenId) internal {\r\n        require(tokenToAddress[_tokenId] == _from);\r\n        safeTransferFrom(_from, _to, _tokenId);\r\n        tokenToAddress[_tokenId] = _to;\r\n        addressToTokens[_from] = addressToTokens[_from].sub(1);\r\n        addressToTokens[_to] = addressToTokens[_to].add(1);\r\n    }\r\n\r\n    function buyToken(uint _tokenId) payable public {\r\n        require(forSale[_tokenId] == true, \"This Token is not for sale\");\r\n        address _owner = (tokenToAddress[_tokenId]);\r\n        address payable _to = payable(msg.sender);\r\n        sendToken(_owner, _to, _tokenId);\r\n        forSale[_tokenId] = false;\r\n    }\r\n\r\n    function sellToken(uint _tokenId, uint _price) public {\r\n        require(_tokenId <= tokenId, \"token with this Id doesn't exist\");\r\n        require(msg.sender == tokenToAddress[_tokenId], \"this address does not own this token\");\r\n        forSale[_tokenId] = true;\r\n        priceOfToken[_tokenId] = _price;\r\n\r\n    }\r\n\r\n    function getPrice(uint _tokenId) public view returns(uint) {\r\n        return priceOfToken[_tokenId];\r\n    }\r\n\r\n    function isForSale(uint _tokenId) public view returns(bool) {\r\n        require(_tokenId <= tokenId, \"token with this Id doesn't exist\");\r\n        return forSale[_tokenId];\r\n    }\r\n\r\n    function getIpfsFromId(uint _tokenId) public view returns(string memory) {\r\n        require(_tokenId <= tokenId, \"token with this Id doesn't exist\");\r\n        string memory res = tokenToIpfs[_tokenId];\r\n        return res;\r\n    }\r\n    \r\n    function getIdFromIpfs(string memory _ipfs) public view returns(uint) {\r\n        return ipfsToToken[_ipfs];\r\n    }\r\n\r\n    function getAddressFromId(uint _tokenId) public view returns(address) {\r\n        return tokenToAddress[_tokenId];\r\n    }\r\n}",
  "sourcePath": "C:/Users/lenovo/Code/pandora-bazaar/Pandora-Bazaar/src/contracts/myToken.sol",
  "compiler": {
    "name": "solc",
    "version": "0.8.0+commit.c7dfd78e.Emscripten.clang"
  },
  "schemaVersion": "3.2.3",
  "updatedAt": "2021-06-29T04:29:10.194Z",
  "networkType": "ethereum",
  "devdoc": {
    "kind": "dev",
    "methods": {
      "approve(address,uint256)": {
        "details": "See {IERC721-approve}."
      },
      "balanceOf(address)": {
        "details": "See {IERC721-balanceOf}."
      },
      "getApproved(uint256)": {
        "details": "See {IERC721-getApproved}."
      },
      "isApprovedForAll(address,address)": {
        "details": "See {IERC721-isApprovedForAll}."
      },
      "name()": {
        "details": "See {IERC721Metadata-name}."
      },
      "owner()": {
        "details": "Returns the address of the current owner."
      },
      "ownerOf(uint256)": {
        "details": "See {IERC721-ownerOf}."
      },
      "renounceOwnership()": {
        "details": "Leaves the contract without owner. It will not be possible to call `onlyOwner` functions anymore. Can only be called by the current owner. NOTE: Renouncing ownership will leave the contract without an owner, thereby removing any functionality that is only available to the owner."
      },
      "safeTransferFrom(address,address,uint256)": {
        "details": "See {IERC721-safeTransferFrom}."
      },
      "safeTransferFrom(address,address,uint256,bytes)": {
        "details": "See {IERC721-safeTransferFrom}."
      },
      "setApprovalForAll(address,bool)": {
        "details": "See {IERC721-setApprovalForAll}."
      },
      "supportsInterface(bytes4)": {
        "details": "See {IERC165-supportsInterface}."
      },
      "symbol()": {
        "details": "See {IERC721Metadata-symbol}."
      },
      "tokenURI(uint256)": {
        "details": "See {IERC721Metadata-tokenURI}."
      },
      "transferFrom(address,address,uint256)": {
        "details": "See {IERC721-transferFrom}."
      },
      "transferOwnership(address)": {
        "details": "Transfers ownership of the contract to a new account (`newOwner`). Can only be called by the current owner."
      }
    },
    "version": 1
  },
  "userdoc": {
    "kind": "user",
    "methods": {},
    "version": 1
  }
}