{
  "contractName": "myToken",
  "abi": [
    {
      "inputs": [],
      "stateMutability": "nonpayable",
      "type": "constructor"
    },
    {
      "anonymous": false,
      "inputs": [
        {
          "indexed": true,
          "internalType": "address",
          "name": "owner",
          "type": "address"
        },
        {
          "indexed": true,
          "internalType": "address",
          "name": "approved",
          "type": "address"
        },
        {
          "indexed": true,
          "internalType": "uint256",
          "name": "tokenId",
          "type": "uint256"
        }
      ],
      "name": "Approval",
      "type": "event"
    },
    {
      "anonymous": false,
      "inputs": [
        {
          "indexed": true,
          "internalType": "address",
          "name": "owner",
          "type": "address"
        },
        {
          "indexed": true,
          "internalType": "address",
          "name": "operator",
          "type": "address"
        },
        {
          "indexed": false,
          "internalType": "bool",
          "name": "approved",
          "type": "bool"
        }
      ],
      "name": "ApprovalForAll",
      "type": "event"
    },
    {
      "anonymous": false,
      "inputs": [
        {
          "indexed": true,
          "internalType": "address",
          "name": "previousOwner",
          "type": "address"
        },
        {
          "indexed": true,
          "internalType": "address",
          "name": "newOwner",
          "type": "address"
        }
      ],
      "name": "OwnershipTransferred",
      "type": "event"
    },
    {
      "anonymous": false,
      "inputs": [
        {
          "indexed": true,
          "internalType": "address",
          "name": "from",
          "type": "address"
        },
        {
          "indexed": true,
          "internalType": "address",
          "name": "to",
          "type": "address"
        },
        {
          "indexed": true,
          "internalType": "uint256",
          "name": "tokenId",
          "type": "uint256"
        }
      ],
      "name": "Transfer",
      "type": "event"
    },
    {
      "inputs": [
        {
          "internalType": "address",
          "name": "to",
          "type": "address"
        },
        {
          "internalType": "uint256",
          "name": "tokenId",
          "type": "uint256"
        }
      ],
      "name": "approve",
      "outputs": [],
      "stateMutability": "nonpayable",
      "type": "function"
    },
    {
      "inputs": [
        {
          "internalType": "address",
          "name": "owner",
          "type": "address"
        }
      ],
      "name": "balanceOf",
      "outputs": [
        {
          "internalType": "uint256",
          "name": "",
          "type": "uint256"
        }
      ],
      "stateMutability": "view",
      "type": "function",
      "constant": true
    },
    {
      "inputs": [
        {
          "internalType": "uint256",
          "name": "tokenId",
          "type": "uint256"
        }
      ],
      "name": "getApproved",
      "outputs": [
        {
          "internalType": "address",
          "name": "",
          "type": "address"
        }
      ],
      "stateMutability": "view",
      "type": "function",
      "constant": true
    },
    {
      "inputs": [
        {
          "internalType": "address",
          "name": "owner",
          "type": "address"
        },
        {
          "internalType": "address",
          "name": "operator",
          "type": "address"
        }
      ],
      "name": "isApprovedForAll",
      "outputs": [
        {
          "internalType": "bool",
          "name": "",
          "type": "bool"
        }
      ],
      "stateMutability": "view",
      "type": "function",
      "constant": true
    },
    {
      "inputs": [],
      "name": "name",
      "outputs": [
        {
          "internalType": "string",
          "name": "",
          "type": "string"
        }
      ],
      "stateMutability": "view",
      "type": "function",
      "constant": true
    },
    {
      "inputs": [],
      "name": "owner",
      "outputs": [
        {
          "internalType": "address",
          "name": "",
          "type": "address"
        }
      ],
      "stateMutability": "view",
      "type": "function",
      "constant": true
    },
    {
      "inputs": [
        {
          "internalType": "uint256",
          "name": "tokenId",
          "type": "uint256"
        }
      ],
      "name": "ownerOf",
      "outputs": [
        {
          "internalType": "address",
          "name": "",
          "type": "address"
        }
      ],
      "stateMutability": "view",
      "type": "function",
      "constant": true
    },
    {
      "inputs": [],
      "name": "renounceOwnership",
      "outputs": [],
      "stateMutability": "nonpayable",
      "type": "function"
    },
    {
      "inputs": [
        {
          "internalType": "address",
          "name": "from",
          "type": "address"
        },
        {
          "internalType": "address",
          "name": "to",
          "type": "address"
        },
        {
          "internalType": "uint256",
          "name": "tokenId",
          "type": "uint256"
        }
      ],
      "name": "safeTransferFrom",
      "outputs": [],
      "stateMutability": "nonpayable",
      "type": "function"
    },
    {
      "inputs": [
        {
          "internalType": "address",
          "name": "from",
          "type": "address"
        },
        {
          "internalType": "address",
          "name": "to",
          "type": "address"
        },
        {
          "internalType": "uint256",
          "name": "tokenId",
          "type": "uint256"
        },
        {
          "internalType": "bytes",
          "name": "_data",
          "type": "bytes"
        }
      ],
      "name": "safeTransferFrom",
      "outputs": [],
      "stateMutability": "nonpayable",
      "type": "function"
    },
    {
      "inputs": [
        {
          "internalType": "address",
          "name": "operator",
          "type": "address"
        },
        {
          "internalType": "bool",
          "name": "approved",
          "type": "bool"
        }
      ],
      "name": "setApprovalForAll",
      "outputs": [],
      "stateMutability": "nonpayable",
      "type": "function"
    },
    {
      "inputs": [
        {
          "internalType": "bytes4",
          "name": "interfaceId",
          "type": "bytes4"
        }
      ],
      "name": "supportsInterface",
      "outputs": [
        {
          "internalType": "bool",
          "name": "",
          "type": "bool"
        }
      ],
      "stateMutability": "view",
      "type": "function",
      "constant": true
    },
    {
      "inputs": [],
      "name": "symbol",
      "outputs": [
        {
          "internalType": "string",
          "name": "",
          "type": "string"
        }
      ],
      "stateMutability": "view",
      "type": "function",
      "constant": true
    },
    {
      "inputs": [
        {
          "internalType": "uint256",
          "name": "tokenId",
          "type": "uint256"
        }
      ],
      "name": "tokenURI",
      "outputs": [
        {
          "internalType": "string",
          "name": "",
          "type": "string"
        }
      ],
      "stateMutability": "view",
      "type": "function",
      "constant": true
    },
    {
      "inputs": [
        {
          "internalType": "address",
          "name": "from",
          "type": "address"
        },
        {
          "internalType": "address",
          "name": "to",
          "type": "address"
        },
        {
          "internalType": "uint256",
          "name": "tokenId",
          "type": "uint256"
        }
      ],
      "name": "transferFrom",
      "outputs": [],
      "stateMutability": "nonpayable",
      "type": "function"
    },
    {
      "inputs": [
        {
          "internalType": "address",
          "name": "newOwner",
          "type": "address"
        }
      ],
      "name": "transferOwnership",
      "outputs": [],
      "stateMutability": "nonpayable",
      "type": "function"
    },
    {
      "inputs": [
        {
          "internalType": "string",
          "name": "_ipfs",
          "type": "string"
        }
      ],
      "name": "createToken",
      "outputs": [],
      "stateMutability": "nonpayable",
      "type": "function"
    },
    {
      "inputs": [
        {
          "internalType": "uint256",
          "name": "_tokenId",
          "type": "uint256"
        }
      ],
      "name": "buyToken",
      "outputs": [],
      "stateMutability": "payable",
      "type": "function",
      "payable": true
    },
    {
      "inputs": [
        {
          "internalType": "uint256",
          "name": "_tokenId",
          "type": "uint256"
        },
        {
          "internalType": "uint256",
          "name": "_price",
          "type": "uint256"
        }
      ],
      "name": "sellToken",
      "outputs": [],
      "stateMutability": "nonpayable",
      "type": "function"
    },
    {
      "inputs": [
        {
          "internalType": "uint256",
          "name": "_tokenId",
          "type": "uint256"
        }
      ],
      "name": "getPrice",
      "outputs": [
        {
          "internalType": "uint256",
          "name": "",
          "type": "uint256"
        }
      ],
      "stateMutability": "view",
      "type": "function",
      "constant": true
    },
    {
      "inputs": [
        {
          "internalType": "uint256",
          "name": "_tokenId",
          "type": "uint256"
        }
      ],
      "name": "isForSale",
      "outputs": [
        {
          "internalType": "bool",
          "name": "",
          "type": "bool"
        }
      ],
      "stateMutability": "view",
      "type": "function",
      "constant": true
    },
    {
      "inputs": [
        {
          "internalType": "uint256",
          "name": "_tokenId",
          "type": "uint256"
        }
      ],
      "name": "getIpfsFromId",
      "outputs": [
        {
          "internalType": "string",
          "name": "",
          "type": "string"
        }
      ],
      "stateMutability": "view",
      "type": "function",
      "constant": true
    },
    {
      "inputs": [
        {
          "internalType": "string",
          "name": "_ipfs",
          "type": "string"
        }
      ],
      "name": "getIdFromIpfs",
      "outputs": [
        {
          "internalType": "uint256",
          "name": "",
          "type": "uint256"
        }
      ],
      "stateMutability": "view",
      "type": "function",
      "constant": true
    },
    {
      "inputs": [
        {
          "internalType": "uint256",
          "name": "_tokenId",
          "type": "uint256"
        }
      ],
      "name": "getAddressFromId",
      "outputs": [
        {
          "internalType": "address",
          "name": "",
          "type": "address"
        }
      ],
      "stateMutability": "view",
      "type": "function",
      "constant": true
    }
  ],
  "bytecode": "0x60806040523480156200001157600080fd5b506040518060400160405280600481526020017f4974656d000000000000000000000000000000000000000000000000000000008152506040518060400160405280600381526020017f49544d000000000000000000000000000000000000000000000000000000000081525081600090805190602001906200009692919062000179565b508060019080519060200190620000af92919062000179565b5050506000620000c46200017160201b60201c565b905080600660006101000a81548173ffffffffffffffffffffffffffffffffffffffff021916908373ffffffffffffffffffffffffffffffffffffffff1602179055508073ffffffffffffffffffffffffffffffffffffffff16600073ffffffffffffffffffffffffffffffffffffffff167f8be0079c531659141344cd1fd0a4f28419497f9722a3daafe3b4186f6b6457e060405160405180910390a3506000600d819055506200028e565b600033905090565b828054620001879062000229565b90600052602060002090601f016020900481019282620001ab5760008555620001f7565b82601f10620001c657805160ff1916838001178555620001f7565b82800160010185558215620001f7579182015b82811115620001f6578251825591602001919060010190620001d9565b5b5090506200020691906200020a565b5090565b5b80821115620002255760008160009055506001016200020b565b5090565b600060028204905060018216806200024257607f821691505b602082108114156200025957620002586200025f565b5b50919050565b7f4e487b7100000000000000000000000000000000000000000000000000000000600052602260045260246000fd5b613807806200029e6000396000f3fe60806040526004361061014b5760003560e01c8063715018a6116100b6578063b88d4fde1161006f578063b88d4fde146104a5578063c87b56dd146104ce578063e75722301461050b578063e985e9c514610548578063f16fec4314610585578063f2fde38b146105c25761014b565b8063715018a61461039557806372166b6b146103ac5780638546d002146103e95780638da5cb5b1461042657806395d89b4114610451578063a22cb4651461047c5761014b565b80632d296bf1116101085780632d296bf11461027057806342842e0e1461028c57806345576f94146102b55780636352211e146102de578063660c1fe71461031b57806370a08231146103585761014b565b806301ffc9a71461015057806306fdde031461018d578063081812fc146101b8578063095ea7b3146101f55780631897bcf31461021e57806323b872dd14610247575b600080fd5b34801561015c57600080fd5b50610177600480360381019061017291906127e7565b6105eb565b60405161018491906130ff565b60405180910390f35b34801561019957600080fd5b506101a26106cd565b6040516101af919061311a565b60405180910390f35b3480156101c457600080fd5b506101df60048036038101906101da919061287a565b61075f565b6040516101ec9190613098565b60405180910390f35b34801561020157600080fd5b5061021c600480360381019061021791906127ab565b6107e4565b005b34801561022a57600080fd5b50610245600480360381019061024091906128a3565b6108fc565b005b34801561025357600080fd5b5061026e600480360381019061026991906126a5565b610a2a565b005b61028a6004803603810190610285919061287a565b610a8a565b005b34801561029857600080fd5b506102b360048036038101906102ae91906126a5565b610bc6565b005b3480156102c157600080fd5b506102dc60048036038101906102d79190612839565b610be6565b005b3480156102ea57600080fd5b506103056004803603810190610300919061287a565b610d4a565b6040516103129190613098565b60405180910390f35b34801561032757600080fd5b50610342600480360381019061033d9190612839565b610dfc565b60405161034f919061339c565b60405180910390f35b34801561036457600080fd5b5061037f600480360381019061037a9190612640565b610e24565b60405161038c919061339c565b60405180910390f35b3480156103a157600080fd5b506103aa610edc565b005b3480156103b857600080fd5b506103d360048036038101906103ce919061287a565b611019565b6040516103e09190613098565b60405180910390f35b3480156103f557600080fd5b50610410600480360381019061040b919061287a565b611056565b60405161041d91906130ff565b60405180910390f35b34801561043257600080fd5b5061043b6110c5565b6040516104489190613098565b60405180910390f35b34801561045d57600080fd5b506104666110ef565b604051610473919061311a565b60405180910390f35b34801561048857600080fd5b506104a3600480360381019061049e919061276f565b611181565b005b3480156104b157600080fd5b506104cc60048036038101906104c791906126f4565b611302565b005b3480156104da57600080fd5b506104f560048036038101906104f0919061287a565b611364565b604051610502919061311a565b60405180910390f35b34801561051757600080fd5b50610532600480360381019061052d919061287a565b61140b565b60405161053f919061339c565b60405180910390f35b34801561055457600080fd5b5061056f600480360381019061056a9190612669565b611428565b60405161057c91906130ff565b60405180910390f35b34801561059157600080fd5b506105ac60048036038101906105a7919061287a565b6114bc565b6040516105b9919061311a565b60405180910390f35b3480156105ce57600080fd5b506105e960048036038101906105e49190612640565b6115ac565b005b60007f80ac58cd000000000000000000000000000000000000000000000000000000007bffffffffffffffffffffffffffffffffffffffffffffffffffffffff1916827bffffffffffffffffffffffffffffffffffffffffffffffffffffffff191614806106b657507f5b5e139f000000000000000000000000000000000000000000000000000000007bffffffffffffffffffffffffffffffffffffffffffffffffffffffff1916827bffffffffffffffffffffffffffffffffffffffffffffffffffffffff1916145b806106c657506106c582611758565b5b9050919050565b6060600080546106dc906135fc565b80601f0160208091040260200160405190810160405280929190818152602001828054610708906135fc565b80156107555780601f1061072a57610100808354040283529160200191610755565b820191906000526020600020905b81548152906001019060200180831161073857829003601f168201915b5050505050905090565b600061076a826117c2565b6107a9576040517f08c379a00000000000000000000000000000000000000000000000000000000081526004016107a0906132dc565b60405180910390fd5b6004600083815260200190815260200160002060009054906101000a900473ffffffffffffffffffffffffffffffffffffffff169050919050565b60006107ef82610d4a565b90508073ffffffffffffffffffffffffffffffffffffffff168373ffffffffffffffffffffffffffffffffffffffff161415610860576040517f08c379a00000000000000000000000000000000000000000000000000000000081526004016108579061335c565b60405180910390fd5b8073ffffffffffffffffffffffffffffffffffffffff1661087f61182e565b73ffffffffffffffffffffffffffffffffffffffff1614806108ae57506108ad816108a861182e565b611428565b5b6108ed576040517f08c379a00000000000000000000000000000000000000000000000000000000081526004016108e49061325c565b60405180910390fd5b6108f78383611836565b505050565b600d54821115610941576040517f08c379a00000000000000000000000000000000000000000000000000000000081526004016109389061321c565b60405180910390fd5b6007600083815260200190815260200160002060009054906101000a900473ffffffffffffffffffffffffffffffffffffffff1673ffffffffffffffffffffffffffffffffffffffff163373ffffffffffffffffffffffffffffffffffffffff16146109e2576040517f08c379a00000000000000000000000000000000000000000000000000000000081526004016109d99061319c565b60405180910390fd5b6001600b600084815260200190815260200160002060006101000a81548160ff02191690831515021790555080600c6000848152602001908152602001600020819055505050565b610a3b610a3561182e565b826118ef565b610a7a576040517f08c379a0000000000000000000000000000000000000000000000000000000008152600401610a719061337c565b60405180910390fd5b610a858383836119cd565b505050565b60011515600b600083815260200190815260200160002060009054906101000a900460ff16151514610af1576040517f08c379a0000000000000000000000000000000000000000000000000000000008152600401610ae89061317c565b60405180910390fd5b60006007600083815260200190815260200160002060009054906101000a900473ffffffffffffffffffffffffffffffffffffffff16905060003390508073ffffffffffffffffffffffffffffffffffffffff168273ffffffffffffffffffffffffffffffffffffffff161415610b6757600080fd5b610b718184611836565b610b7c828285611c29565b6000600b600085815260200190815260200160002060006101000a81548160ff0219169083151502179055506000600c600085815260200190815260200160002081905550505050565b610be183838360405180602001604052806000815250611302565b505050565b3360076000600d54815260200190815260200160002060006101000a81548173ffffffffffffffffffffffffffffffffffffffff021916908373ffffffffffffffffffffffffffffffffffffffff160217905550610c8d6001600860003373ffffffffffffffffffffffffffffffffffffffff1673ffffffffffffffffffffffffffffffffffffffff16815260200190815260200160002054611e2290919063ffffffff16565b600860003373ffffffffffffffffffffffffffffffffffffffff1673ffffffffffffffffffffffffffffffffffffffff168152602001908152602001600020819055508060096000600d5481526020019081526020016000209080519060200190610cf9929190612464565b50600d54600a82604051610d0d919061305d565b908152602001604051809103902081905550610d2b33600d54611e38565b610d416001600d54611e2290919063ffffffff16565b600d8190555050565b6000806002600084815260200190815260200160002060009054906101000a900473ffffffffffffffffffffffffffffffffffffffff169050600073ffffffffffffffffffffffffffffffffffffffff168173ffffffffffffffffffffffffffffffffffffffff161415610df3576040517f08c379a0000000000000000000000000000000000000000000000000000000008152600401610dea9061329c565b60405180910390fd5b80915050919050565b6000600a82604051610e0e919061305d565b9081526020016040518091039020549050919050565b60008073ffffffffffffffffffffffffffffffffffffffff168273ffffffffffffffffffffffffffffffffffffffff161415610e95576040517f08c379a0000000000000000000000000000000000000000000000000000000008152600401610e8c9061327c565b60405180910390fd5b600360008373ffffffffffffffffffffffffffffffffffffffff1673ffffffffffffffffffffffffffffffffffffffff168152602001908152602001600020549050919050565b610ee461182e565b73ffffffffffffffffffffffffffffffffffffffff16610f026110c5565b73ffffffffffffffffffffffffffffffffffffffff1614610f58576040517f08c379a0000000000000000000000000000000000000000000000000000000008152600401610f4f906132fc565b60405180910390fd5b600073ffffffffffffffffffffffffffffffffffffffff16600660009054906101000a900473ffffffffffffffffffffffffffffffffffffffff1673ffffffffffffffffffffffffffffffffffffffff167f8be0079c531659141344cd1fd0a4f28419497f9722a3daafe3b4186f6b6457e060405160405180910390a36000600660006101000a81548173ffffffffffffffffffffffffffffffffffffffff021916908373ffffffffffffffffffffffffffffffffffffffff160217905550565b60006007600083815260200190815260200160002060009054906101000a900473ffffffffffffffffffffffffffffffffffffffff169050919050565b6000600d5482111561109d576040517f08c379a00000000000000000000000000000000000000000000000000000000081526004016110949061321c565b60405180910390fd5b600b600083815260200190815260200160002060009054906101000a900460ff169050919050565b6000600660009054906101000a900473ffffffffffffffffffffffffffffffffffffffff16905090565b6060600180546110fe906135fc565b80601f016020809104026020016040519081016040528092919081815260200182805461112a906135fc565b80156111775780601f1061114c57610100808354040283529160200191611177565b820191906000526020600020905b81548152906001019060200180831161115a57829003601f168201915b5050505050905090565b61118961182e565b73ffffffffffffffffffffffffffffffffffffffff168273ffffffffffffffffffffffffffffffffffffffff1614156111f7576040517f08c379a00000000000000000000000000000000000000000000000000000000081526004016111ee906131fc565b60405180910390fd5b806005600061120461182e565b73ffffffffffffffffffffffffffffffffffffffff1673ffffffffffffffffffffffffffffffffffffffff16815260200190815260200160002060008473ffffffffffffffffffffffffffffffffffffffff1673ffffffffffffffffffffffffffffffffffffffff16815260200190815260200160002060006101000a81548160ff0219169083151502179055508173ffffffffffffffffffffffffffffffffffffffff166112b161182e565b73ffffffffffffffffffffffffffffffffffffffff167f17307eab39ab6107e8899845ad3d59bd9653f200f220920489ca2b5937696c31836040516112f691906130ff565b60405180910390a35050565b61131361130d61182e565b836118ef565b611352576040517f08c379a00000000000000000000000000000000000000000000000000000000081526004016113499061337c565b60405180910390fd5b61135e84848484611e56565b50505050565b606061136f826117c2565b6113ae576040517f08c379a00000000000000000000000000000000000000000000000000000000081526004016113a59061333c565b60405180910390fd5b60006113b8611eb2565b905060008151116113d85760405180602001604052806000815250611403565b806113e284611ec9565b6040516020016113f3929190613074565b6040516020818303038152906040525b915050919050565b6000600c6000838152602001908152602001600020549050919050565b6000600560008473ffffffffffffffffffffffffffffffffffffffff1673ffffffffffffffffffffffffffffffffffffffff16815260200190815260200160002060008373ffffffffffffffffffffffffffffffffffffffff1673ffffffffffffffffffffffffffffffffffffffff16815260200190815260200160002060009054906101000a900460ff16905092915050565b6060600d54821115611503576040517f08c379a00000000000000000000000000000000000000000000000000000000081526004016114fa9061321c565b60405180910390fd5b6000600960008481526020019081526020016000208054611523906135fc565b80601f016020809104026020016040519081016040528092919081815260200182805461154f906135fc565b801561159c5780601f106115715761010080835404028352916020019161159c565b820191906000526020600020905b81548152906001019060200180831161157f57829003601f168201915b5050505050905080915050919050565b6115b461182e565b73ffffffffffffffffffffffffffffffffffffffff166115d26110c5565b73ffffffffffffffffffffffffffffffffffffffff1614611628576040517f08c379a000000000000000000000000000000000000000000000000000000000815260040161161f906132fc565b60405180910390fd5b600073ffffffffffffffffffffffffffffffffffffffff168173ffffffffffffffffffffffffffffffffffffffff161415611698576040517f08c379a000000000000000000000000000000000000000000000000000000000815260040161168f9061315c565b60405180910390fd5b8073ffffffffffffffffffffffffffffffffffffffff16600660009054906101000a900473ffffffffffffffffffffffffffffffffffffffff1673ffffffffffffffffffffffffffffffffffffffff167f8be0079c531659141344cd1fd0a4f28419497f9722a3daafe3b4186f6b6457e060405160405180910390a380600660006101000a81548173ffffffffffffffffffffffffffffffffffffffff021916908373ffffffffffffffffffffffffffffffffffffffff16021790555050565b60007f01ffc9a7000000000000000000000000000000000000000000000000000000007bffffffffffffffffffffffffffffffffffffffffffffffffffffffff1916827bffffffffffffffffffffffffffffffffffffffffffffffffffffffff1916149050919050565b60008073ffffffffffffffffffffffffffffffffffffffff166002600084815260200190815260200160002060009054906101000a900473ffffffffffffffffffffffffffffffffffffffff1673ffffffffffffffffffffffffffffffffffffffff1614159050919050565b600033905090565b816004600083815260200190815260200160002060006101000a81548173ffffffffffffffffffffffffffffffffffffffff021916908373ffffffffffffffffffffffffffffffffffffffff160217905550808273ffffffffffffffffffffffffffffffffffffffff166118a983610d4a565b73ffffffffffffffffffffffffffffffffffffffff167f8c5be1e5ebec7d5bd14f71427d1e84f3dd0314c0f7b2291e5b200ac8c7c3b92560405160405180910390a45050565b60006118fa826117c2565b611939576040517f08c379a00000000000000000000000000000000000000000000000000000000081526004016119309061323c565b60405180910390fd5b600061194483610d4a565b90508073ffffffffffffffffffffffffffffffffffffffff168473ffffffffffffffffffffffffffffffffffffffff1614806119b357508373ffffffffffffffffffffffffffffffffffffffff1661199b8461075f565b73ffffffffffffffffffffffffffffffffffffffff16145b806119c457506119c38185611428565b5b91505092915050565b8273ffffffffffffffffffffffffffffffffffffffff166119ed82610d4a565b73ffffffffffffffffffffffffffffffffffffffff1614611a43576040517f08c379a0000000000000000000000000000000000000000000000000000000008152600401611a3a9061331c565b60405180910390fd5b600073ffffffffffffffffffffffffffffffffffffffff168273ffffffffffffffffffffffffffffffffffffffff161415611ab3576040517f08c379a0000000000000000000000000000000000000000000000000000000008152600401611aaa906131dc565b60405180910390fd5b611abe838383612076565b611ac9600082611836565b6001600360008573ffffffffffffffffffffffffffffffffffffffff1673ffffffffffffffffffffffffffffffffffffffff1681526020019081526020016000206000828254611b199190613512565b925050819055506001600360008473ffffffffffffffffffffffffffffffffffffffff1673ffffffffffffffffffffffffffffffffffffffff1681526020019081526020016000206000828254611b70919061348b565b92505081905550816002600083815260200190815260200160002060006101000a81548173ffffffffffffffffffffffffffffffffffffffff021916908373ffffffffffffffffffffffffffffffffffffffff160217905550808273ffffffffffffffffffffffffffffffffffffffff168473ffffffffffffffffffffffffffffffffffffffff167fddf252ad1be2c89b69c2b068fc378daa952ba7f163c4a11628f55a4df523b3ef60405160405180910390a4505050565b8273ffffffffffffffffffffffffffffffffffffffff166007600083815260200190815260200160002060009054906101000a900473ffffffffffffffffffffffffffffffffffffffff1673ffffffffffffffffffffffffffffffffffffffff1614611c9457600080fd5b611c9f838383610bc6565b816007600083815260200190815260200160002060006101000a81548173ffffffffffffffffffffffffffffffffffffffff021916908373ffffffffffffffffffffffffffffffffffffffff160217905550611d446001600860008673ffffffffffffffffffffffffffffffffffffffff1673ffffffffffffffffffffffffffffffffffffffff1681526020019081526020016000205461207b90919063ffffffff16565b600860008573ffffffffffffffffffffffffffffffffffffffff1673ffffffffffffffffffffffffffffffffffffffff16815260200190815260200160002081905550611dda6001600860008573ffffffffffffffffffffffffffffffffffffffff1673ffffffffffffffffffffffffffffffffffffffff16815260200190815260200160002054611e2290919063ffffffff16565b600860008473ffffffffffffffffffffffffffffffffffffffff1673ffffffffffffffffffffffffffffffffffffffff16815260200190815260200160002081905550505050565b60008183611e30919061348b565b905092915050565b611e52828260405180602001604052806000815250612091565b5050565b611e618484846119cd565b611e6d848484846120ec565b611eac576040517f08c379a0000000000000000000000000000000000000000000000000000000008152600401611ea39061313c565b60405180910390fd5b50505050565b606060405180602001604052806000815250905090565b60606000821415611f11576040518060400160405280600181526020017f30000000000000000000000000000000000000000000000000000000000000008152509050612071565b600082905060005b60008214611f43578080611f2c9061362e565b915050600a82611f3c91906134e1565b9150611f19565b60008167ffffffffffffffff811115611f85577f4e487b7100000000000000000000000000000000000000000000000000000000600052604160045260246000fd5b6040519080825280601f01601f191660200182016040528015611fb75781602001600182028036833780820191505090505b5090505b6000851461206a57600182611fd09190613512565b9150600a85611fdf9190613677565b6030611feb919061348b565b60f81b818381518110612027577f4e487b7100000000000000000000000000000000000000000000000000000000600052603260045260246000fd5b60200101907effffffffffffffffffffffffffffffffffffffffffffffffffffffffffffff1916908160001a905350600a8561206391906134e1565b9450611fbb565b8093505050505b919050565b505050565b600081836120899190613512565b905092915050565b61209b8383612283565b6120a860008484846120ec565b6120e7576040517f08c379a00000000000000000000000000000000000000000000000000000000081526004016120de9061313c565b60405180910390fd5b505050565b600061210d8473ffffffffffffffffffffffffffffffffffffffff16612451565b15612276578373ffffffffffffffffffffffffffffffffffffffff1663150b7a0261213661182e565b8786866040518563ffffffff1660e01b815260040161215894939291906130b3565b602060405180830381600087803b15801561217257600080fd5b505af19250505080156121a357506040513d601f19601f820116820180604052508101906121a09190612810565b60015b612226573d80600081146121d3576040519150601f19603f3d011682016040523d82523d6000602084013e6121d8565b606091505b5060008151141561221e576040517f08c379a00000000000000000000000000000000000000000000000000000000081526004016122159061313c565b60405180910390fd5b805181602001fd5b63150b7a0260e01b7bffffffffffffffffffffffffffffffffffffffffffffffffffffffff1916817bffffffffffffffffffffffffffffffffffffffffffffffffffffffff19161491505061227b565b600190505b949350505050565b600073ffffffffffffffffffffffffffffffffffffffff168273ffffffffffffffffffffffffffffffffffffffff1614156122f3576040517f08c379a00000000000000000000000000000000000000000000000000000000081526004016122ea906132bc565b60405180910390fd5b6122fc816117c2565b1561233c576040517f08c379a0000000000000000000000000000000000000000000000000000000008152600401612333906131bc565b60405180910390fd5b61234860008383612076565b6001600360008473ffffffffffffffffffffffffffffffffffffffff1673ffffffffffffffffffffffffffffffffffffffff1681526020019081526020016000206000828254612398919061348b565b92505081905550816002600083815260200190815260200160002060006101000a81548173ffffffffffffffffffffffffffffffffffffffff021916908373ffffffffffffffffffffffffffffffffffffffff160217905550808273ffffffffffffffffffffffffffffffffffffffff16600073ffffffffffffffffffffffffffffffffffffffff167fddf252ad1be2c89b69c2b068fc378daa952ba7f163c4a11628f55a4df523b3ef60405160405180910390a45050565b600080823b905060008111915050919050565b828054612470906135fc565b90600052602060002090601f01602090048101928261249257600085556124d9565b82601f106124ab57805160ff19168380011785556124d9565b828001600101855582156124d9579182015b828111156124d85782518255916020019190600101906124bd565b5b5090506124e691906124ea565b5090565b5b808211156125035760008160009055506001016124eb565b5090565b600061251a612515846133e8565b6133b7565b90508281526020810184848401111561253257600080fd5b61253d8482856135ba565b509392505050565b600061255861255384613418565b6133b7565b90508281526020810184848401111561257057600080fd5b61257b8482856135ba565b509392505050565b60008135905061259281613775565b92915050565b6000813590506125a78161378c565b92915050565b6000813590506125bc816137a3565b92915050565b6000815190506125d1816137a3565b92915050565b600082601f8301126125e857600080fd5b81356125f8848260208601612507565b91505092915050565b600082601f83011261261257600080fd5b8135612622848260208601612545565b91505092915050565b60008135905061263a816137ba565b92915050565b60006020828403121561265257600080fd5b600061266084828501612583565b91505092915050565b6000806040838503121561267c57600080fd5b600061268a85828601612583565b925050602061269b85828601612583565b9150509250929050565b6000806000606084860312156126ba57600080fd5b60006126c886828701612583565b93505060206126d986828701612583565b92505060406126ea8682870161262b565b9150509250925092565b6000806000806080858703121561270a57600080fd5b600061271887828801612583565b945050602061272987828801612583565b935050604061273a8782880161262b565b925050606085013567ffffffffffffffff81111561275757600080fd5b612763878288016125d7565b91505092959194509250565b6000806040838503121561278257600080fd5b600061279085828601612583565b92505060206127a185828601612598565b9150509250929050565b600080604083850312156127be57600080fd5b60006127cc85828601612583565b92505060206127dd8582860161262b565b9150509250929050565b6000602082840312156127f957600080fd5b6000612807848285016125ad565b91505092915050565b60006020828403121561282257600080fd5b6000612830848285016125c2565b91505092915050565b60006020828403121561284b57600080fd5b600082013567ffffffffffffffff81111561286557600080fd5b61287184828501612601565b91505092915050565b60006020828403121561288c57600080fd5b600061289a8482850161262b565b91505092915050565b600080604083850312156128b657600080fd5b60006128c48582860161262b565b92505060206128d58582860161262b565b9150509250929050565b6128e881613546565b82525050565b6128f781613558565b82525050565b600061290882613448565b612912818561345e565b93506129228185602086016135c9565b61292b81613764565b840191505092915050565b600061294182613453565b61294b818561346f565b935061295b8185602086016135c9565b61296481613764565b840191505092915050565b600061297a82613453565b6129848185613480565b93506129948185602086016135c9565b80840191505092915050565b60006129ad60328361346f565b91507f4552433732313a207472616e7366657220746f206e6f6e20455243373231526560008301527f63656976657220696d706c656d656e74657200000000000000000000000000006020830152604082019050919050565b6000612a1360268361346f565b91507f4f776e61626c653a206e6577206f776e657220697320746865207a65726f206160008301527f64647265737300000000000000000000000000000000000000000000000000006020830152604082019050919050565b6000612a79601a8361346f565b91507f5468697320546f6b656e206973206e6f7420666f722073616c650000000000006000830152602082019050919050565b6000612ab960248361346f565b91507f74686973206164647265737320646f6573206e6f74206f776e2074686973207460008301527f6f6b656e000000000000000000000000000000000000000000000000000000006020830152604082019050919050565b6000612b1f601c8361346f565b91507f4552433732313a20746f6b656e20616c7265616479206d696e746564000000006000830152602082019050919050565b6000612b5f60248361346f565b91507f4552433732313a207472616e7366657220746f20746865207a65726f2061646460008301527f72657373000000000000000000000000000000000000000000000000000000006020830152604082019050919050565b6000612bc560198361346f565b91507f4552433732313a20617070726f766520746f2063616c6c6572000000000000006000830152602082019050919050565b6000612c0560208361346f565b91507f746f6b656e2077697468207468697320496420646f65736e27742065786973746000830152602082019050919050565b6000612c45602c8361346f565b91507f4552433732313a206f70657261746f7220717565727920666f72206e6f6e657860008301527f697374656e7420746f6b656e00000000000000000000000000000000000000006020830152604082019050919050565b6000612cab60388361346f565b91507f4552433732313a20617070726f76652063616c6c6572206973206e6f74206f7760008301527f6e6572206e6f7220617070726f76656420666f7220616c6c00000000000000006020830152604082019050919050565b6000612d11602a8361346f565b91507f4552433732313a2062616c616e636520717565727920666f7220746865207a6560008301527f726f2061646472657373000000000000000000000000000000000000000000006020830152604082019050919050565b6000612d7760298361346f565b91507f4552433732313a206f776e657220717565727920666f72206e6f6e657869737460008301527f656e7420746f6b656e00000000000000000000000000000000000000000000006020830152604082019050919050565b6000612ddd60208361346f565b91507f4552433732313a206d696e7420746f20746865207a65726f20616464726573736000830152602082019050919050565b6000612e1d602c8361346f565b91507f4552433732313a20617070726f76656420717565727920666f72206e6f6e657860008301527f697374656e7420746f6b656e00000000000000000000000000000000000000006020830152604082019050919050565b6000612e8360208361346f565b91507f4f776e61626c653a2063616c6c6572206973206e6f7420746865206f776e65726000830152602082019050919050565b6000612ec360298361346f565b91507f4552433732313a207472616e73666572206f6620746f6b656e2074686174206960008301527f73206e6f74206f776e00000000000000000000000000000000000000000000006020830152604082019050919050565b6000612f29602f8361346f565b91507f4552433732314d657461646174613a2055524920717565727920666f72206e6f60008301527f6e6578697374656e7420746f6b656e00000000000000000000000000000000006020830152604082019050919050565b6000612f8f60218361346f565b91507f4552433732313a20617070726f76616c20746f2063757272656e74206f776e6560008301527f72000000000000000000000000000000000000000000000000000000000000006020830152604082019050919050565b6000612ff560318361346f565b91507f4552433732313a207472616e736665722063616c6c6572206973206e6f74206f60008301527f776e6572206e6f7220617070726f7665640000000000000000000000000000006020830152604082019050919050565b613057816135b0565b82525050565b6000613069828461296f565b915081905092915050565b6000613080828561296f565b915061308c828461296f565b91508190509392505050565b60006020820190506130ad60008301846128df565b92915050565b60006080820190506130c860008301876128df565b6130d560208301866128df565b6130e2604083018561304e565b81810360608301526130f481846128fd565b905095945050505050565b600060208201905061311460008301846128ee565b92915050565b600060208201905081810360008301526131348184612936565b905092915050565b60006020820190508181036000830152613155816129a0565b9050919050565b6000602082019050818103600083015261317581612a06565b9050919050565b6000602082019050818103600083015261319581612a6c565b9050919050565b600060208201905081810360008301526131b581612aac565b9050919050565b600060208201905081810360008301526131d581612b12565b9050919050565b600060208201905081810360008301526131f581612b52565b9050919050565b6000602082019050818103600083015261321581612bb8565b9050919050565b6000602082019050818103600083015261323581612bf8565b9050919050565b6000602082019050818103600083015261325581612c38565b9050919050565b6000602082019050818103600083015261327581612c9e565b9050919050565b6000602082019050818103600083015261329581612d04565b9050919050565b600060208201905081810360008301526132b581612d6a565b9050919050565b600060208201905081810360008301526132d581612dd0565b9050919050565b600060208201905081810360008301526132f581612e10565b9050919050565b6000602082019050818103600083015261331581612e76565b9050919050565b6000602082019050818103600083015261333581612eb6565b9050919050565b6000602082019050818103600083015261335581612f1c565b9050919050565b6000602082019050818103600083015261337581612f82565b9050919050565b6000602082019050818103600083015261339581612fe8565b9050919050565b60006020820190506133b1600083018461304e565b92915050565b6000604051905081810181811067ffffffffffffffff821117156133de576133dd613735565b5b8060405250919050565b600067ffffffffffffffff82111561340357613402613735565b5b601f19601f8301169050602081019050919050565b600067ffffffffffffffff82111561343357613432613735565b5b601f19601f8301169050602081019050919050565b600081519050919050565b600081519050919050565b600082825260208201905092915050565b600082825260208201905092915050565b600081905092915050565b6000613496826135b0565b91506134a1836135b0565b9250827fffffffffffffffffffffffffffffffffffffffffffffffffffffffffffffffff038211156134d6576134d56136a8565b5b828201905092915050565b60006134ec826135b0565b91506134f7836135b0565b925082613507576135066136d7565b5b828204905092915050565b600061351d826135b0565b9150613528836135b0565b92508282101561353b5761353a6136a8565b5b828203905092915050565b600061355182613590565b9050919050565b60008115159050919050565b60007fffffffff0000000000000000000000000000000000000000000000000000000082169050919050565b600073ffffffffffffffffffffffffffffffffffffffff82169050919050565b6000819050919050565b82818337600083830152505050565b60005b838110156135e75780820151818401526020810190506135cc565b838111156135f6576000848401525b50505050565b6000600282049050600182168061361457607f821691505b6020821081141561362857613627613706565b5b50919050565b6000613639826135b0565b91507fffffffffffffffffffffffffffffffffffffffffffffffffffffffffffffffff82141561366c5761366b6136a8565b5b600182019050919050565b6000613682826135b0565b915061368d836135b0565b92508261369d5761369c6136d7565b5b828206905092915050565b7f4e487b7100000000000000000000000000000000000000000000000000000000600052601160045260246000fd5b7f4e487b7100000000000000000000000000000000000000000000000000000000600052601260045260246000fd5b7f4e487b7100000000000000000000000000000000000000000000000000000000600052602260045260246000fd5b7f4e487b7100000000000000000000000000000000000000000000000000000000600052604160045260246000fd5b6000601f19601f8301169050919050565b61377e81613546565b811461378957600080fd5b50565b61379581613558565b81146137a057600080fd5b50565b6137ac81613564565b81146137b757600080fd5b50565b6137c3816135b0565b81146137ce57600080fd5b5056fea264697066735822122053c98c0312a83568fc758105c3e42342e2626b10c6de37ec44e0adc14273023d64736f6c63430008000033",
  "immutableReferences": {},
  "source": "// SPDX-License-Identifier: MIT\r\n\r\npragma solidity 0.8.0;\r\n\r\nimport \"../../node_modules/@openzeppelin/contracts/token/ERC721/ERC721.sol\";\r\nimport \"../../node_modules/@openzeppelin/contracts/utils/math/safeMath.sol\";\r\nimport \"../../node_modules/@openzeppelin/contracts/access/Ownable.sol\";\r\n\r\ncontract myToken is ERC721, Ownable {\r\n\r\n    using SafeMath for uint;\r\n\r\n    mapping(uint => address) tokenToAddress;\r\n    mapping(address => uint) addressToTokens;\r\n    mapping(uint => string) tokenToIpfs;\r\n    mapping(string => uint) ipfsToToken;\r\n    mapping(uint => bool) forSale;\r\n    mapping(uint => uint) priceOfToken;\r\n    uint tokenId;\r\n\r\n    constructor() ERC721(\"Item\", \"ITM\") {\r\n        tokenId = 0;\r\n    }\r\n\r\n    function createToken(string memory _ipfs) public {\r\n\r\n        tokenToAddress[tokenId] = msg.sender;\r\n        addressToTokens[msg.sender] = addressToTokens[msg.sender].add(1);\r\n        tokenToIpfs[tokenId] = _ipfs;\r\n        ipfsToToken[_ipfs] = tokenId;\r\n        _safeMint(msg.sender, tokenId);\r\n        tokenId = tokenId.add(1);\r\n\r\n    }\r\n\r\n    function sendToken(address _from, address payable _to, uint _tokenId) internal {\r\n        require(tokenToAddress[_tokenId] == _from);\r\n        safeTransferFrom(_from, _to, _tokenId);\r\n        tokenToAddress[_tokenId] = _to;\r\n        addressToTokens[_from] = addressToTokens[_from].sub(1);\r\n        addressToTokens[_to] = addressToTokens[_to].add(1);\r\n    }\r\n\r\n    function buyToken(uint _tokenId) payable public {\r\n        require(forSale[_tokenId] == true, \"This Token is not for sale\");\r\n        address _owner = (tokenToAddress[_tokenId]);\r\n        address payable _to = payable(msg.sender);\r\n        require(_owner != _to);\r\n        _approve(_to, _tokenId);\r\n        sendToken(_owner, _to, _tokenId);\r\n        forSale[_tokenId] = false;\r\n        priceOfToken[_tokenId] = 0;\r\n    }\r\n\r\n    function sellToken(uint _tokenId, uint _price) public {\r\n        require(_tokenId <= tokenId, \"token with this Id doesn't exist\");\r\n        require(msg.sender == tokenToAddress[_tokenId], \"this address does not own this token\");\r\n        forSale[_tokenId] = true;\r\n        priceOfToken[_tokenId] = _price;\r\n\r\n    }\r\n\r\n    function getPrice(uint _tokenId) public view returns(uint) {\r\n        return priceOfToken[_tokenId];\r\n    }\r\n\r\n    function isForSale(uint _tokenId) public view returns(bool) {\r\n        require(_tokenId <= tokenId, \"token with this Id doesn't exist\");\r\n        return forSale[_tokenId];\r\n    }\r\n\r\n    function getIpfsFromId(uint _tokenId) public view returns(string memory) {\r\n        require(_tokenId <= tokenId, \"token with this Id doesn't exist\");\r\n        string memory res = tokenToIpfs[_tokenId];\r\n        return res;\r\n    }\r\n    \r\n    function getIdFromIpfs(string memory _ipfs) public view returns(uint) {\r\n        return ipfsToToken[_ipfs];\r\n    }\r\n\r\n    function getAddressFromId(uint _tokenId) public view returns(address) {\r\n        return tokenToAddress[_tokenId];\r\n    }\r\n}",
  "sourcePath": "C:/Users/lenovo/Code/pandora-bazaar/Pandora-Bazaar/src/contracts/myToken.sol",
  "compiler": {
    "name": "solc",
    "version": "0.8.0+commit.c7dfd78e.Emscripten.clang"
  },
  "schemaVersion": "3.2.3",
  "updatedAt": "2021-06-29T10:29:22.564Z",
  "networkType": "ethereum",
  "devdoc": {
    "kind": "dev",
    "methods": {
      "approve(address,uint256)": {
        "details": "See {IERC721-approve}."
      },
      "balanceOf(address)": {
        "details": "See {IERC721-balanceOf}."
      },
      "getApproved(uint256)": {
        "details": "See {IERC721-getApproved}."
      },
      "isApprovedForAll(address,address)": {
        "details": "See {IERC721-isApprovedForAll}."
      },
      "name()": {
        "details": "See {IERC721Metadata-name}."
      },
      "owner()": {
        "details": "Returns the address of the current owner."
      },
      "ownerOf(uint256)": {
        "details": "See {IERC721-ownerOf}."
      },
      "renounceOwnership()": {
        "details": "Leaves the contract without owner. It will not be possible to call `onlyOwner` functions anymore. Can only be called by the current owner. NOTE: Renouncing ownership will leave the contract without an owner, thereby removing any functionality that is only available to the owner."
      },
      "safeTransferFrom(address,address,uint256)": {
        "details": "See {IERC721-safeTransferFrom}."
      },
      "safeTransferFrom(address,address,uint256,bytes)": {
        "details": "See {IERC721-safeTransferFrom}."
      },
      "setApprovalForAll(address,bool)": {
        "details": "See {IERC721-setApprovalForAll}."
      },
      "supportsInterface(bytes4)": {
        "details": "See {IERC165-supportsInterface}."
      },
      "symbol()": {
        "details": "See {IERC721Metadata-symbol}."
      },
      "tokenURI(uint256)": {
        "details": "See {IERC721Metadata-tokenURI}."
      },
      "transferFrom(address,address,uint256)": {
        "details": "See {IERC721-transferFrom}."
      },
      "transferOwnership(address)": {
        "details": "Transfers ownership of the contract to a new account (`newOwner`). Can only be called by the current owner."
      }
    },
    "version": 1
  },
  "userdoc": {
    "kind": "user",
    "methods": {},
    "version": 1
  }
}